:020000040000FA
:100000000C94B1060C94D9060C94D9060C946E236A
:100010000C946E230C946E230C94D9060C94D90680
:100020000C94D9060C94D9060C94D9060C94D906D4
:100030000C94D9060C9497240C94D9060C94D906E8
:100040000C9424230C94D9060C94F2220C94CC2208
:100050000C94D9060C94D9060C94D9060C94D906A4
:100060000C9478230C94D906036EDB363D9A99994B
:10007000993DABAAAA2A3E000000803F084AD73B20
:100080003BCE016E84BCBFFDC12F3D6C74319ABD67
:1000900056833DDA3D00C77F11BED9E4BB4C3E918B
:1000A0006BAAAABE000000803F072C7AA5BA6CC5D7
:1000B00090DA3B9365FC8BBC53F810FD3C56928361
:1000C0004DBD879D3AB63DCBC9BF5BBE73DA0FC944
:1000D0003F05A84CCDB2D44EB93836A9020C50B960
:1000E000918688083CA6AAAA2ABE000000803F0686
:1000F00064EC1B3C04BC163E3BE5B93CC93C37C232
:100100009E5A3D660498083EEA69AAAA3E0000008D
:10011000803F4E414E494E495459494E46CDCCCC74
:100120003D0AD7233C17B7D13877CC2B329595E6CB
:10013000241FB14F0A000020410000C84200401CAB
:100140004620BCBE4CCA1B0E5AAEC59D74008040F2
:10015000C020A060E0109050D030B070F008884807
:10016000C828A868E8189858D838B878F80484449B
:10017000C424A464E4149454D434B474F40C8C4CA7
:10018000CC2CAC6CEC1C9C5CDC3CBC7CFC0282424D
:10019000C222A262E2129252D232B272F20A8A4AA7
:1001A000CA2AAA6AEA1A9A5ADA3ABA7AFA0686463B
:1001B000C626A666E6169656D636B676F60E8E4E47
:1001C000CE2EAE6EEE1E9E5EDE3EBE7EFE018141F6
:1001D000C121A161E1119151D131B171F109894977
:1001E000C929A969E9199959D939B979F90585450B
:1001F000C525A565E5159555D535B575F50D8D4D17
:10020000CD2DAD6DED1D9D5DDD3DBD7DFD038343BC
:10021000C323A363E3139353D333B373F30B8B4B16
:10022000CB2BAB6BEB1B9B5BDB3BBB7BFB078747AA
:10023000C727A767E7179757D737B777F70F8F4FB6
:10024000CF2FAF6FEF1F9F5FDF3FBF7FFF0000002B
:100250000023002600290015420A0C20600001023C
:10026000060509070102020305010501030603064D
:10027000050605050506050101050505040908062D
:10028000070705050806010406040A08080408050E
:10029000050506070B06060601040105060105050E
:1002A0000406060306050102040109050505060307
:1002B000040306050904050402010204003F1003BB
:1002C000030000E87E4848FE4C00000000000000EB
:1002D0000E1223E210103010100E11916E18C6226B
:1002E00020C0001000000000101000E01E1939E6C8
:1002F000E020001010100000100300FE0110200389
:10030000FC30000C0E040000002030FC3020000007
:10031000000000003020202020200000000000000D
:1003200010C0300E1000007C830101837C0010108F
:100330001010000203FF00001080C22321110E10D4
:1003400010101010008301111EE00010101000604A
:10035000784C47FF40000000001000800F0909F1B1
:100360000010101000F01C0F19F000101010000108
:10037000C1710F031010000000FE1111111EE000EA
:1003800010101010001E31A1711E00001000000896
:100390001008302070508888000000000050505035
:1003A00050500000000000888850702000000000BD
:1003B000000321110F001000007C8279858585FEE5
:1003C000843800101020202000000080E078464E85
:1003D00078C0001000000000000010FF1111119FF4
:1003E000E01010101010007C8201010181800000DB
:1003F0001010101000FF01010101827C101010107C
:10040000100000FE121212121010101010FF111125
:10041000111110000000007C828101011191F00097
:1004200000101010101000FF10101010FF1000002E
:10043000000010FF10800000FE10101000FE303091
:10044000688402300000000010FE00000010101050
:1004500010FE060C70C0C0700C06FE1000000010EC
:100460001000000010FE060C1860C0C0FE10000056
:1004700000000010107C8201010101827C0000104C
:100480001010100000FF11110E100000007C8201FE
:10049000014181827C0000101010103000FF11110A
:1004A000718E10000000100E191111E010101010C4
:1004B000000101FF01010000100000FF800000802A
:1004C0007F0010101010000638E080E018060000D1
:1004D00000100000000E70C0E01C061CE0C0700E92
:1004E000000010000000000010000081C63C3CC667
:1004F00081100000000010020618F018040000002F
:1005000010000081C131190703101010101010FFE6
:10051000700618E00000000010FF700C02030608CF
:10052000000000000000000000000020202020202B
:10053000200700C0504848F01010101010FF980815
:1005400008F01010101000F008080800101010F04B
:1005500098080898FF001010101010F050484848F4
:100560007800101010000018FE11001000F088082C
:100570000898F8009090909070FF180808F010000C
:10058000000010FA1000F980F0FE60609810000082
:1005900010FF10F8180808F8080808F0100000000C
:1005A0001000000010F8080808F01000000010F01B
:1005B000080808F00010101000F8980808F0F01073
:1005C000101000F008080898F80010101010F0F84B
:1005D0001808100000102848C00010101008FC086F
:1005E000001010F880000080F80010101010101893
:1005F000E080E018000010000038E0C07038F0C063
:10060000E01800101000000010000088F0F08810C2
:100610000000101870C0C038808070100080C8388A
:100620001810101010FE013040FF1001FE40300481
:100630000206060000000000000000240027002A37
:100640000000000000250028002B0004040404041E
:10065000040404020202020202030303030303016F
:100660000204081020408001020408102001020446
:100670000810200000000800020100000304070029
:100680000000000000000010100000667E667E661C
:100690006666667E7E7E7E606060607E7E7E7E6652
:1006A0000666067FFE7FFE0000101000007FFE7FC2
:1006B000FE000000007E667E66066606667E667E3A
:1006C00066666666667FFE7FFE00001010200120D1
:1006D00007701FF83F707F007FF83F001F57FF50E3
:1006E0000077FF773E761C761C761CFFFF1010808B
:1006F00004E004F80EFC1FFE0EFE00FC1FF800FFD5
:10070000EA000AFFEE7CEE386E386E386EFFFF4D61
:1007100041534A4944000000004D5553484F4C4C4A
:10072000410000535552415500000000004C414E1D
:1007300047474152000000004A414E0046454200F2
:100740004D415200415052004D4549004A554E001E
:100750004A554C0041475300534550004F4B5400FD
:100760004E4F5600444553000041484144000000AC
:1007700053454E494E000053454C415341005241B0
:1007800042550000004B414D495300004A554D274A
:1007900041540053414254550000004D55484152C8
:1007A00052414D00000053484146415200000000B4
:1007B000005241422E4157414C0000005241422E0E
:1007C000414B48495200004A554D2E4157414C007B
:1007D00000004A554D2E414B484952000052414AB3
:1007E00041420000000000005359412742414E00A1
:1007F00000000052414D414448414E000000535911
:100800004157414C0000000000445A554C514127CB
:1008100044414800445A554C48494A414800000068
:1008200053594157414C000000000000005359410A
:100830002742414E00000000000053454E494E0043
:10084000000000000000004B414D49530000000033
:100850000000000054454E4741482042554C414E4F
:100860000041524F46414800000000000000445A39
:10087000554C48494A41480000000054415355270F
:100880004100000000000000415359555241000052
:10089000000000000052414D414448414E0000001C
:1008A0000000004D41524920505541534100000085
:1008B000000000000000000000000000004D415258
:1008C00049204B495441204E4941544B414E205000
:1008D000554153410000004D415249204B4954417C
:1008E0002050455242414E59414B205055415341B1
:1008F0000053454C414D4154204D454E4A414C41D9
:100900004E4B414E205055415341000003D006103C
:10091000300B0606060606060606060606FCFE035D
:10092000C3FEFC3F7FC3C07F3F0006FFFF00000007
:10093000C0FFFFC0000C0E83C3FE7CFEFFC3C1C01E
:10094000C00C8E8383FE3C3071C1C17F3CC0F03C43
:10095000FFFF000F0FC8FFFFC87F7F6363E3C33053
:1009600070C0C07F3FFCFEC3C3CE8C3F7FC0C07F42
:100970003F030303E3FF1F0000FFFF00007CFE8333
:1009800083FE7C3E7FC1C17F3EFCFE0303FEFC3143
:1009900073C3C37F3F00003838000000001C1C00F8
:1009A00000494D53414B000000535542554800004B
:1009B0000054524249540000004448554841000048
:1009C0000044554855520000004153484152000030
:1009D000004D414752420000004953594100000078
:1009E000004A554D415400000000000004072060FB
:1009F00000000000005E000000060006000000008D
:100A000000000000000000000000000000000000E6
:100A1000003C420000423C000A040A00081C080096
:100A20004020000008080800006060002010080452
:100A30007E42427E427E40007252525E5252527E4E
:100A40001E10107E5E5252727E5252720202027E5E
:100A50007E52527E5E52527E0024240000442400C6
:100A600000000000242424240000000000000000F6
:100A7000000000007C12127C7E52522C3C42422428
:100A80007E42423C7E5252527E1212123C425234FC
:100A90007E10107E427E42002040423E7E1824425C
:100AA0007E4040407E0C0C7E7E0C107E3C42423CE0
:100AB0007E12120C3C52225C7E12324C4C5252225C
:100AC000027E02003E40403E1E20403E7E30307E90
:100AD000661818662648483E62524A46007E420022
:100AE0000408102000427E000804020440404040F8
:100AF00000020400205454787E484830384444288A
:100B00003048487E38545418087C0A0A4894947C2B
:100B10007E100870487A40004080887A7E10284411
:100B2000003E40407C18187C7C08047838444438E7
:100B30007C1414080814147C7C08040848545424B9
:100B4000043E44443C40207C1C20403C7C30307CB3
:100B50004C30304C4C90907C6454544C000000005D
:100B60000000000000000000000000000000050779
:100B70002060000000000000005F00000007000788
:100B800000147F147F14242A7F2A1223130864621E
:100B900036495522500005030000001C2241000088
:100BA00041221C00082A1C2A0808083E0808005098
:100BB00030000008080808080060600000201008E5
:100BC00004023E5149453E00427F40004261514986
:100BD000462141454B311814127F102745454539B0
:100BE0003C4A4949300171090503364949493606ED
:100BF0004949291E0036360000005636000000081C
:100C00001422411414141414412214080002015136
:100C10000906324979413E7E1111117E7F494949C9
:100C2000363E414141227F4141221C7F4949494191
:100C30007F090901013E414151327F0808087F00C8
:100C4000417F41002040413F017F081422417F4005
:100C50004040407F0204027F7F0408107F3E4141F4
:100C6000413E7F090909063E4151215E7F0919294C
:100C700046464949493101017F01013F4040403F1B
:100C80001F2040201F7F2018207F63140814630357
:100C900004780403615149454300007F4141020447
:100CA00008102041417F000004020102044040403E
:100CB0004040000102040020545454787F484444CA
:100CC000383844444420384444487F3854545418F5
:100CD000087E090102081454543C7F08040478007B
:100CE000447D40002040443D00007F1028440041E6
:100CF0007F40007C041804787C080404783844445D
:100D000044387C14141408081414187C7C08040457
:100D1000084854545420043F4440203C4040207C28
:100D20001C2040201C3C4030403C44281028440CEF
:100D30005050503C4464544C44000836410000007C
:100D40007F0000004136080008082A1C08081C2AF9
:100D500008081F1C1F1E1F1E1F1F1E1F1E1FBE2434
:100D6000313111241FBECFEFD8E0DEBFCDBF26E06A
:100D7000A0E6B2E001C01D92AA37B207E1F712E087
:100D8000A0E0B1E0ECE5F9E702C005900D92A036D5
:100D9000B107D9F716E0C0EBD6E004C02197FE01F9
:100DA0000E94F837CF3AD107C9F70E94F9250C9471
:100DB000A13C0C94000020915D0630915E068217E4
:100DC000930780F520915F063091600662177307E4
:100DD00048F52091610630916206629FF001639FA1
:100DE000F00D729FF00D11249C0153E0359527956D
:100DF0005A95E1F72E0F3F1FE0916306F0916406CC
:100E0000E20FF31F50819C012770332780E890E0A8
:100E100002C0959587952A95E2F7442321F08095A5
:100E2000852380830895852BFCCF8F929F92AF926C
:100E3000BF92CF92DF92EF92FF920F93CF93DF9307
:100E40005C016B014A0179011E141F04ACF4D0E06F
:100E5000C0E0C815D9054CF4402FB601C5018C0F70
:100E60009D1F0E94DB062196F4CF8FEFC81AD80A87
:100E700081E0E81AF108E8CFDF91CF910F91FF9060
:100E8000EF90DF90CF90BF90AF909F908F9008959C
:100E900020916506309166062115310531F1F90181
:100EA000349644913196E491803209F48EE68417A9
:100EB000E0F090E050E0E40FF52FF11D8E179F0752
:100EC000A4F4F9016491611109C03196E491E11132
:100ED00005C0F9013296849190E00895FC01E41B6D
:100EE000F50B3696E20FF31FF6CF90E080E0089501
:100EF0002F923F925F926F927F928F929F92AF92CA
:100F0000BF92CF92DF92EF92FF920F931F93CF93F6
:100F1000DF937C016B015A014901502ECA018E19E1
:100F20009F09E901C61BD70B01E010E097FF05C040
:100F30009195819591090FEF1FEF66246394712CB1
:100F4000D7FF06C0D195C195D10966246A94762C45
:100F50008C179D07FCF01E01220C331C4101881ADE
:100F6000990AC81BD90BCC0FDD1F452DB601C7014F
:100F70000E94DB06AE14BF0471F1181419042CF0A2
:100F8000820C931CE00EF11EF0CF8C0E9D1EC60C41
:100F9000D71CF8CF1C01220C331C5101AC1ABD0A1E
:100FA0009C012C1B3D0BE901CC0FDD1F452DB6012B
:100FB000C7010E94DB068C149D0469F01A141B04FF
:100FC0002CF0A20CB31CC60CD71CF0CFAC0EBD1E6F
:100FD000E00EF11EF8CFDF91CF911F910F91FF909E
:100FE000EF90DF90CF90BF90AF909F908F907F90C9
:100FF0006F905F903F902F9008958F929F92AF9245
:10100000BF92CF92DF92EF920F931F93CF93DF9314
:101010004C016B015A01E901102F481759072CF4B4
:10102000982F892D4A01A92EB82ECC15DD050CF478
:1010300064C0E11221C09E012C193D092F5F3F4F72
:10104000A501481959094F5F5F4F0E2DB601C40124
:101050000E941507DF91CF911F910F91EF90DF90C4
:10106000CF90BF90AF909F908F9008959C2F8D2F21
:10107000E601C92ED82EDFCF012F9601A501B601BA
:10108000C4010E947807CC16DD064CF4012F9E01A6
:10109000A501B6016F5F7F4FC5010E9478078A14D2
:1010A0009B0444F4012F9E01A401BE01C5010197D8
:1010B0000E947807BE0161507109C616D70644F434
:1010C000012F96012F5F3F4FA401C4010E947807B2
:1010D00082E0E81609F4BECF9E012C193D0921508B
:1010E0003109A5014819590941505109B6016F5FED
:1010F0007F4F0E2DC4010196ABCFE11609F4B6CF98
:10110000012F9E01A501BE01C4010E9478079C2FFA
:101110008D2FE601C92ED82EB9CF9091150580915B
:1011200014052FEF3FEF981748F4E92FF0E0EC504B
:10113000FB4F208130E09F5F90931505C901089512
:1011400090911505809114052FEF3FEF981748F403
:10115000E92FF0E0EC50FB4F208130E09F5F90934F
:101160001505C901089591E09093F3048093F2046A
:101170001092F1041092F00408953F924F925F9202
:101180006F927F928F929F92AF92BF92CF92DF9297
:10119000EF92FF920F931F93CF93DF934C01462E54
:1011A000FA01549031966490E52CF12CF7E0EF0EA3
:1011B000F11C23E0F594E7942A95E1F7EA012296E1
:1011C000062F172F802F8419861530F55E01FE013A
:1011D0003490D12CC12C90E8792EC514C0F4C401F0
:1011E0008C0D9D1D272D232141E009F440E0B8011D
:1011F0000E94DB06769439F4FFEFAF1ABF0AF501BF
:10120000349080E8782EFFEFCF1ADF0AE6CFCE0DBC
:10121000DF1D0F5F1F4FD6CFDF91CF911F910F9131
:10122000FF90EF90DF90CF90BF90AF909F908F9006
:101230007F906F905F904F903F900895CF93DF9392
:10124000C3E0D1E080915203909153036991DC0196
:10125000ED91FC910190F081E02D0995B1E0CD3048
:10126000DB0781F7DF91CF910895089508950895E0
:10127000AF92BF92CF92DF92EF92FF920F931F93A4
:10128000CF93DF936C017B018B01040F151FEB01E2
:101290005E01AE18BF08C017D10759F06991D60199
:1012A000ED91FC910190F081E02DC6010995892B0B
:1012B00079F7C501DF91CF911F910F91FF90EF90CA
:1012C000DF90CF90BF90AF900895FC01538D448D77
:1012D000252F30E0842F90E0821B930B541710F0E1
:1012E000CF96089501970895FC01918D828D9817EE
:1012F00061F0A28DAE0FBF2FB11D5D968C91928DC6
:101300009F5F9F73928F90E008958FEF9FEF0895F6
:10131000FC01918D828D981731F0828DE80FF11DBF
:10132000858D90E008958FEF9FEF0895FC01918DDA
:10133000228D892F90E0805C9F4F821B91098F73D3
:10134000992708958CEA95E00E94960921E0892B5F
:1013500009F420E0822F0895FC01A48DA80FB92F75
:10136000B11DA35ABF4F2C91848D90E001968F73CD
:101370009927848FA689B7892C93A089B1898C91EC
:10138000837080648C93938D848D981306C002883B
:10139000F389E02D80818F7D80830895EF92FF9205
:1013A0000F931F93CF93DF93EC0181E0888F9B8D88
:1013B0008C8D98131AC0E889F989808185FF15C042
:1013C0009FB7F894EE89FF896083E889F989808165
:1013D0008370806480839FBF81E090E0DF91CF9134
:1013E0001F910F91FF90EF900895F62E0B8D10E056
:1013F0000F5F1F4F0F731127E02E8C8D8E110CC0C5
:101400000FB607FCFACFE889F989808185FFF5CF0F
:10141000CE010E94AC09F1CFEB8DEC0FFD2FF11D39
:10142000E35AFF4FF0829FB7F8940B8FEA89FB894C
:1014300080818062CFCFCF93DF93EC01888D8823AA
:10144000B9F0AA89BB89E889F9898C9185FD03C027
:10145000808186FD0DC00FB607FCF7CF8C9185FF0C
:10146000F2CF808185FFEDCFCE010E94AC09E9CF9C
:10147000DF91CF910895833081F028F4813099F085
:101480008230A9F008958730A9F08830C9F08430FF
:10149000B1F4809180008F7D03C0809180008F77B0
:1014A00080938000089584B58F7784BD089584B5B6
:1014B0008F7DFBCF8091B0008F778093B00008952F
:1014C0008091B0008F7DF9CF1F93CF93DF93282FAA
:1014D00030E0F901ED58F94F8491F901E15AF94FE3
:1014E000D491F901E55BF94FC491CC23A9F0162FF3
:1014F00081110E943B0AEC2FF0E0EE0FFF1FEF5B23
:10150000F94FA591B4918FB7F894EC91111108C0DF
:10151000D095DE23DC938FBFDF91CF911F9108958B
:10152000DE2BF8CFCF93DF9390E0FC01E15AF94F27
:101530002491855B994FFC0184918823D1F090E040
:10154000880F991FFC01E95CF94FA591B491FC014A
:10155000EF5BF94FC591D49161110EC09FB7F8941C
:101560008C91E22FE0958E238C932881E223E883EF
:101570009FBFDF91CF9108958FB7F894EC91E22B44
:10158000EC938FBFF6CF3FB7F89480914A039091C8
:101590004B03A0914C03B0914D0326B5A89B05C009
:1015A0002F3F19F00196A11DB11D3FBFBA2FA92FE2
:1015B000982F8827BC01CD01620F711D811D911DDF
:1015C00042E0660F771F881F991F4A95D1F708954B
:1015D0008F929F92AF92BF92CF92DF92EF92FF9243
:1015E0004B015C010E94C30A6B017C010E94C30A8B
:1015F0006C197D098E099F09683E7340810591052C
:10160000A8F321E0821A9108A108B10888EEC80E5B
:1016100083E0D81EE11CF11C81149104A104B104E3
:1016200029F7FF90EF90DF90CF90BF90AF909F9001
:101630008F9008952FB7F8946091460370914703F7
:1016400080914803909149032FBF08958F929F92F4
:10165000AF92BF92CF92DF92EF92FF921F93CF9300
:10166000DF93182FEB010E941A0B6B017C01809015
:10167000A0049090A104A090A204B090A304C81468
:10168000D904EA04FB0409F453C00E941A0BDC01DC
:10169000CB0188199909AA09BB0982339105A105D3
:1016A000B10578F422E3C22ED12CE12CF12CA70154
:1016B0009601281B390B4A0B5B0BCA01B9010E942A
:1016C000E80A1093060110920801C0930901809165
:1016D000040190910501890F9927991F810F911D90
:1016E00020910701820F911DC80FD91FD195C19577
:1016F000D109D0930A01C0930B01E0919E04F091AF
:101700009F0409950E941A0B6093A0047093A10492
:101710008093A2049093A304DF91CF911F91FF9037
:10172000EF90DF90CF90BF90AF909F908F900895F3
:101730000E941A0BA7019601261B370B480B590B69
:10174000DA01C901AACF6EE170E086E00C94260BA5
:10175000BC0182E10C94260BCF93DF93CAE0D0E06A
:101760008091520390915303DC01ED91FC9102842E
:10177000F385E02D0995019631F0219789F781E0F5
:10178000DF91CF91089580E0FBCF20912003260FB9
:101790003327331F21323105ECF42091EA04FC0198
:1017A00090E080E0243069F082E00895A091200369
:1017B0002191AC0140505D4FA40FB52FB11D2C936A
:1017C0000196861798F380912003680F6093200399
:1017D00080E0089581E008951092EA0481E080930A
:1017E000E9041092E40461E082E10E94640A61E08D
:1017F00083E10E94640AE9EBF0E080818E7F8083C0
:1018000080818D7F808388E48093B80085E4809315
:10181000BC000895CF93DF9391E09093FF0288235B
:10182000B9F0C091B800D091BA008091BC008A7B19
:101830008093BC0060E082E10E94640A60E083E182
:101840000E94640A0E94EC0BD093BA00C093B800C7
:10185000DF91CF910895CF92DF92EF92FF920F9395
:101860001F93CF93DF93D091F00481E0D13208F041
:101870009CC0C091F2040E94C30A6B017C0180915C
:10188000EA0481116CC082E08093EA0481E08093D5
:10189000E9048FEF8093E8041092E704D093E60404
:1018A000A4EAB4E0E4ECF4E080E0D8138DC0109238
:1018B000E5048091E504CC0FC82BC093E50480912A
:1018C000E404813009F084C01092E4040E94C30A49
:1018D0006B017C018091E5048093BB008091EC0456
:1018E0009091ED04A091EE04B091EF04892B8A2B26
:1018F0008B2BA1F00E94C30A0091EC041091ED041F
:101900002091EE043091EF046C197D098E099F0936
:10191000061717072807390708F442C08091BC0052
:1019200083FDD8CF85EC8093BC000E94C30A6B0175
:101930007C018091EA04823009F44CC08091E80473
:101940008F3F09F469C08091E804803209F466C0D1
:101950008091E804803309F463C084E026C080915C
:10196000EC049091ED04A091EE04B091EF04892B6A
:101970008A2B8B2B09F483CF0E94C30A0091EC04BD
:101980001091ED042091EE043091EF046C197D0963
:101990008E099F09061717072807390708F06FCF28
:1019A0008091EB040E940A0C85E01092F1041092E1
:1019B000F0041092F304DF91CF911F910F91FF90EB
:1019C000EF90DF90CF9008959D9191938F5F6DCFB1
:1019D00085EEA9CF8091EC049091ED04A091EE04E6
:1019E000B091EF04892B8A2B8B2B09F4A2CF0E9494
:1019F000C30A0091EC041091ED042091EE043091A3
:101A0000EF046C197D098E099F090617170728072F
:101A1000390708F08ECFC4CF80E0C7CF82E0C5CFB2
:101A200083E0C3CF0895E091150580911405E81770
:101A300030F4F0E0EC50FB4F808190E008958FEFA0
:101A40009FEF08958091140590911505891B990BBE
:101A50000895CF92DF92EF92FF920F931F93CF934F
:101A6000DF937C01CB018A012091F304222389F0CA
:101A7000EB016B01C40ED51ECC15DD0569F0699133
:101A8000D701ED91FC910190F081E02DC7010995FE
:101A9000F3CF642F0E94C50BC801DF91CF911F9136
:101AA0000F91FF90EF90DF90CF900895CF93DF9349
:101AB0001F92CDB7DEB769832091F3042223F9F09A
:101AC0002091F004203258F021E030E0FC01338313
:101AD000228390E080E00F90DF91CF910895809174
:101AE000F104E82FF0E0EC55FB4F998190838F5F74
:101AF0008093F1048093F00481E090E0ECCF61E00A
:101B0000CE0101960E94C50BF7CF682F89E496E0BD
:101B10000C94560DCF93C82F88E60E94B30881E03D
:101B200090E00E94850D8C2F6AE00E94C437829558
:101B3000807F682F690F89E496E00E94560DCF914F
:101B40000C942B0CCF93C82F88E60E94B30883E037
:101B500090E00E94850D8C2F6AE00E94C437829528
:101B6000807F682F690F89E496E00E94560DCF911F
:101B70000C942B0CCF93C82F88E60E94B30884E006
:101B800090E00E94850D8C2F6AE00E94C4378295F8
:101B9000807F682F690F89E496E00E94560DCF91EF
:101BA0000C942B0CCF93C82F88E60E94B30885E0D5
:101BB00090E00E94850D8C2F6AE00E94C4378295C8
:101BC000807F682F690F89E496E00E94560DCF91BF
:101BD0000C942B0CCF93C82F88E60E94B30886E0A4
:101BE00090E00E94850D8C2F6AE00E94C437829598
:101BF000807F682F690F89E496E00E94560DCF918F
:101C00000C942B0C90E080E008958EBD0DB407FE7F
:101C1000FDCF0895813029F48091920461E08130F4
:101C200009F060E085E00C94640A4F925F926F9235
:101C30007F928F929F92AF92BF92CF92DF92EF925C
:101C4000FF920F931F93CF93DF93EDE7F6E084911C
:101C5000E9E6F6E0D491E5E5F6E0C491CC2309F499
:101C6000E5C081110E943B0AEC2FF0E0EE0FFF1F50
:101C7000E35BFD4FA591B491EC91ED2309F4D6C03F
:101C80000091610610916206000F111F000F111FD5
:101C900080915F069091600624E0969587952A953D
:101CA000E1F721E08227817030E020E0AA24BB2404
:101CB000A01AB10A40915F065091600624173507BB
:101CC0000CF08EC060906E0670906F06E09061061A
:101CD000F09062064091690650E0290190E1490EBA
:101CE000511C81112EC0240F351F2E9DE0012F9D08
:101CF000D00D3E9DD00D1124C60DD71D3E01600EA6
:101D0000711E6301C00ED11E4601800E911E1E146D
:101D10001F040CF060C0D4018D914D010E94050E8E
:101D2000F60181916F010E94050ED3018D913D0155
:101D30000E94050E89910E94050EB1E0EB1AF10890
:101D4000E6CF9201241B350B2E9DC0012F9D900DD7
:101D50003E9D900D1124EC012197C60DD71DCA0D93
:101D6000DB1D6E01CA0CDB1C4601EFEF8E1A9E0ACA
:101D70002196680E791ECA0CDB1CEC18FD08C60102
:101D80008E0D9F1D181619064CF5F1E0CF1AD108DB
:101D9000D6011196EC91F0E0E35BFE4F84910E9436
:101DA000050ED401EE914D01F0E0E35BFE4F84910E
:101DB0000E94050EEA91F0E0E35BFE4F84910E94E1
:101DC000050ED301EE913D01F0E0E35BFE4F8491FF
:101DD0000E94050ED4CF81E092016CCF80E0FCCF51
:101DE00060E089E00E94920A61E088E00E94640A53
:101DF00060E088E00E94640A8091690661E081FFEA
:101E000060E087E00E94640A8091690661E080FFDB
:101E100060E086E00E94640A61E089E00E94920A24
:101E2000809169068F5F837080936906DF91CF91FF
:101E30001F910F91FF90EF90DF90CF90BF90AF90E8
:101E40009F908F907F906F905F904F900895CF9369
:101E5000DF93EC0161E089E00E94920AE0E8F0E0A3
:101E6000808180688083A0915603B09157039E01C2
:101E70000E9480342AE096958795779567952A95F4
:101E8000D1F7709389006093880080915803806136
:101E900080938100DF91CF910895CF92DF92EF92EE
:101EA000FF920F931F93CF93DF93D82F0E94C30A03
:101EB0006B017C018091EA04811165C0CD2F81E026
:101EC0008093EA048093E9049FEF9093E8041092D2
:101ED000E7049D0F9093E6048093E5048091E50468
:101EE000806D8093E5048091E404813009F07FC027
:101EF0001092E4040E94C30A6B017C018091E50406
:101F00008093BB008091EC049091ED04A091EE04CD
:101F1000B091EF04892B8A2B8B2BA1F00E94C30A6E
:101F20000091EC041091ED042091EE043091EF0447
:101F30006C197D098E099F090617170728073907AD
:101F400008F442C08091BC0083FDD8CF85EC80931B
:101F5000BC000E94C30A6B017C018091EA048130BD
:101F600009F447C08091E7048D1710F4C091E7048D
:101F7000A4ECB4E0E4EFF4E080E08C1751F19D9123
:101F800091938F5FFACF8091EC049091ED04A09132
:101F9000EE04B091EF04892B8A2B8B2B09F48ACFA6
:101FA0000E94C30A0091EC041091ED042091EE040C
:101FB0003091EF046C197D098E099F0906171707E8
:101FC0002807390708F076CF8091EB040E940A0CAD
:101FD000C0E010921505C09314058C2FDF91CF91AE
:101FE0001F910F91FF90EF90DF90CF90089585EEB5
:101FF000AECF8091EC049091ED04A091EE04B091ED
:10200000EF04892B8A2B8B2B09F4A7CF0E94C30ADC
:102010000091EC041091ED042091EE043091EF0456
:102020006C197D098E099F090617170728073907BC
:1020300008F093CFC9CFCF93C82F88E60E94B3088A
:1020400082E090E00E94850D0E942B0C81E090E0E0
:102050000E944D0F0E94A00886FF24C0CD30C8F01A
:1020600084EF8C0F6AE00E94C437C82FC295C07FEE
:10207000C90FC06688E60E94B30882E090E00E9423
:10208000850D6C2F89E496E00E94560DCF910C943B
:102090002B0C8C2F6AE00E94C4378295807FC82F5A
:1020A000C90FE8CF8C2F6AE00E94C437C82FC295B1
:1020B000C07FC90FCF7BDECFCF9388E60E94B308E5
:1020C00082E090E00E94850D0E942B0C81E090E060
:1020D0000E944D0F0E94A008C82F88E60E94B308F6
:1020E00082E090E00E94850D6C2F6F7B89E496E082
:1020F0000E94560DCF910C942B0CCF92DF92EF9251
:10210000FF920F931F93CF93DF9388E60E94B3084B
:1021100090E080E00E94850D0E942B0C87E090E00B
:102120000E944D0F0E94A0088F77282F30E094E086
:10213000359527959A95E1F7922F990F990FC22F10
:10214000C91BCC0FC80F0E94A0089C0144E0359524
:1021500027954A95E1F72F703327922F990F990F02
:10216000122F191B110F180F0E94A0089C0154E098
:10217000359527955A95E1F72F703327922F990FB0
:10218000990FD22FD91BDD0FD80F0E94A0080E94F3
:10219000A0089C0164E0359527956A95E1F72F70BA
:1021A0003327922F990F990FF22EF91AFF0CF80E80
:1021B0000E94A0089C0174E0359527957A95E1F777
:1021C0002F703327922F990F990F022F091B000FA1
:1021D000080F0E94A008E7E5F6E09C01A4E0359511
:1021E0002795AA95E1F72F703327922F990F990F12
:1021F000291B220F820F80830183F282D3831483F1
:10220000C583612F70E090E080E00E94063320E0FB
:1022100030E040E752E40E949F356B017C016D2F56
:1022200070E090E080E00E9406339B01AC01C701A2
:10223000B6010E94A1346B017C016C2F70E090E02C
:1022400080E00E94063320E030E041E655E40E9441
:102250009F359B01AC01C701B6010E94A134609378
:10226000590370935A0380935B0390935C0388E651
:102270000E94B30883E090E00E94850D0E942B0C21
:1022800081E090E00E944D0F0E94A008982F929547
:102290009F708F702AE0929F800D11248093F60327
:1022A000DF91CF911F910F91FF90EF90DF90CF9032
:1022B0000895CF93C82F88E60E94B30890E080E08D
:1022C0000E94850D8C2F6AE00E94C4378295807F22
:1022D000682F690F89E496E00E94560D0E942B0C2E
:1022E00088E60E94B3088FE090E00E94850D0E946E
:1022F0002B0C81E090E00E944D0F0E94A008C82F97
:1023000088E60E94B3088FE090E00E94850D6C2F54
:102310006F7789E496E00E94560DCF910C942B0CB8
:10232000CF93C82F88E60E94B3088EE090E00E9409
:10233000850D0E942B0C81E090E00E944D0F0E94C1
:10234000A008C13089F4C82FCE7F88E60E94B30868
:102350008EE090E00E94850D6C2F89E496E00E944B
:10236000560DCF910C942B0CC82FCD7FEECF2F9212
:102370003F924F925F926F927F928F929F92AF9215
:10238000BF92CF92DF92EF92FF920F931F93CF9362
:10239000DF93CDB7DEB766970FB6F894DEBF0FBEFA
:1023A000CDBF9E8B8D8B4B01E0916506F09166064B
:1023B000309709F45EC03396E491DA010D90002065
:1023C000E9F711975D01A41AB50A58874F832E2F9C
:1023D00030E03C8B2B8BA114B10409F44AC0EF818F
:1023E000F885A191F887EF834091650650916606C4
:1023F000FA0133966490A03209F054C08EE60E9430
:1024000048077C0101E080916706811100E0262DDC
:1024100030E0A701B4018D899E890E9415076D895E
:102420007E896E0D7F1D7E8B6D8B71E0A716B104CA
:1024300099F001E080916706811100E02B893C89C9
:1024400041E050E0B4018D899E890E9415078D8975
:102450009E8901969E8B8D8B91E0A91AB10880917F
:102460005D0690915E06ED89FE89E817F9070CF488
:10247000B2CF66960FB6F894DEBF0FBECDBFDF9128
:10248000CF911F910F91FF90EF90DF90CF90BF9071
:10249000AF909F908F907F906F905F904F903F9004
:1024A0002F900895FA01349624913196E491A21761
:1024B00008F4CCC08E2F90E0BC01620F711DA617EE
:1024C00017060CF0C3C0A21B712C9301295F3F4F6C
:1024D00063E0359527956A95E1F7FA01B4916A2F83
:1024E00070E0B11196C03196E491E11192C0FA0109
:1024F00032965490629FD001639FB00D729FB00DD1
:1025000011245A9EC0015B9E900D11240696840FE3
:10251000951FE52CF12C4D895E894E0D5F1D14161B
:1025200015060CF07CCFA401460D571D1416150698
:102530000CF075CF2D83F1E0FE83409167064111C9
:102540001E82CD88DE88452D50E05E874D87BC0118
:102550006C197D09788B6F87C90101979A8B898BDC
:10256000F3013897FA87E9878C2DFD898F1B851534
:1025700008F055CF2F8538892C0D3D1D3C832B83CA
:10258000312C212C1A8219823D814981431708F090
:1025900059C0EB81FC814490313049F029893A8956
:1025A00049815A8199858A852417350711F0922D22
:1025B000832D092F182FB801685F7F4F7C876B87A9
:1025C000021513056CF06016710654F0B401600F2B
:1025D000711F4091670640FE4E81C6010E94DB06D6
:1025E00046940F5F1F4F8B859C858017910741F79D
:1025F000E981FA813196FA83E983F8E02F0E311CE4
:102600002B813C814D855E85240F351F3C832B83B8
:10261000BBCFFB013696E40FF51F54900696840F4E
:10262000951FFA01369660E0A61709F472CF7491EF
:10263000729FA001739F500D1124840F951F6F5F2F
:102640003196F2CF5FEFC51AD50A8ECFF12CE12C6F
:10265000E6CEEF92FF920F931F93CF93DF93EC019F
:1026600009900020E9F72197C81BD90B8C01F12CA8
:10267000E12C209779F0F80181918F010E944807A1
:10268000E80EF91EC130D10519F0FFEFEF1AFF0A6D
:102690002197EFCFC701DF91CF911F910F91FF904D
:1026A000EF900895AF92BF92CF92DF92EF920F9387
:1026B0001F93CF93DF938C01EB016A01CA010E9443
:1026C0002913E0916506F091660630E020E030972E
:1026D00021F03396E4912E2F30E040915506509131
:1026E0005606401B510B481B590B57FF02C04F5F4A
:1026F0005F4F559547955801A40EB51E2C0F3D1FF1
:10270000800F911F480F591FE12C00E0BE01C50149
:1027100001970E94FD07A601BE01C501DF91CF917F
:102720001F910F91EF90DF90CF90BF90AF900C94DE
:10273000B7110F931F93CF93DF93C6E1D5E08C01C0
:1027400006511540C8018C0F9D1F0E9428348993A3
:1027500085E0CC3AD807B1F786E195E0DF91CF91DB
:102760001F910F910895CF92DF92EF92FF92CF9336
:10277000DF93EC0170E090E080E00E94083320E0FD
:1027800030E04CEE51E40E94673324EF3DEF47EE1A
:1027900051E40E94A0340E9447366B017C01CC5862
:1027A000D540BE0190E080E00E9406332CEF3EE26F
:1027B00041EB53E40E9467330E9447369B01AC0112
:1027C000C701B6010E94A13420E030E040E85FE399
:1027D0000E94A1340E941136DF91CF91FF90EF90BB
:1027E000DF90CF9008954F925F926F927F928F9279
:1027F0009F92AF92BF92CF92DF92EF92FF92CF93D0
:10280000DF9300D000D000D0CDB7DEB76E83D42EDA
:102810002D83633020F40197262F245F2E837C01C3
:1028200030EDE31A37E0F30AB70190E080E00E9450
:10283000063320E030EA46EB53E40E9467330E94FF
:10284000473669837A838B839C834E81642F70E043
:102850006F5F7F4F072E000C880B990B0E94083387
:1028600021E03DEC44EF51E40E9467330E9447367B
:102870002B013C01C70164E670E00E94D03790E074
:1028800080E00E9406334B015C01A3019201698143
:102890007A818B819C810E94A1349B01AC01C5018E
:1028A000B4010E94A1344B015C01C70160E971E0F1
:1028B0000E94D03790E080E00E9406339B01AC017B
:1028C000C501B4010E94A1344B015C016D2D70E083
:1028D00090E080E00E9408339B01AC01C501B40187
:1028E0000E94A13420E030E044E453E40E94A1348B
:1028F0000E941136C09096040C2C000CDD08EE08E6
:10290000FF08C60ED71EE81EF91E5D81C50ED11C3C
:10291000E11CF11CC701B6010E9408332CEF3EE216
:1029200041EB53E40E949F350E94473620E030E897
:1029300041EB54E40E94A1340E9411362B013C016A
:1029400061E0C2010E94B313C616D706E806F90675
:1029500034F08FEF481A580A680A780AF1CF21E05C
:10296000421A510861087108812C912C54018394FA
:102970004D825982682D8D8199810E94B313C616AC
:10298000D706E806F90634F03FEF831A930AA30A44
:10299000B30AF0CF41E0841A9108A108B108682D6C
:1029A000C2010E94B3135FEFC51AD50AE50AF50A02
:1029B000A7019601261B370B480B590BCA01B90119
:1029C0003DE083169104A104B10449F4635E7F4F96
:1029D0008F4F9F4F8CE0882E912CA12CB12C782DFD
:1029E0008D81998126960FB6F894DEBF0FBECDBFBC
:1029F000DF91CF91FF90EF90DF90CF90BF90AF909D
:102A00009F908F907F906F905F904F900895CF929E
:102A1000DF92EF92FF926B017C0120E030E044EB0B
:102A200053E40E949F350E94473620E030E044EB9B
:102A300053E40E9467339B01AC01C701B6010E94B9
:102A4000A0346B017C0120E030E0A9010E94013339
:102A500087FF0AC020E030E044EB53E4C701B60131
:102A60000E94A1346B017C01C701B601FF90EF9079
:102A7000DF90CF900895EF92FF920F931F93CF9323
:102A8000DF93CDB7DEB764970FB6F894DEBF0FBE05
:102A9000CDBF7C01E7E5F6E085811F928F938481AD
:102AA0001F928F9383811F928F938DED91E09F935F
:102AB0008F938E010F5F1F4F1F930F930E94003A59
:102AC000A801B70190E080E00E94521381E080935A
:102AD0009D040FB6F894DEBF0FBECDBF64960FB64F
:102AE000F894DEBF0FBECDBFDF91CF911F910F9144
:102AF000FF90EF9008956F927F928F929F92AF9286
:102B0000BF92CF92DF92EF92FF920F931F93CF93DA
:102B1000DF93E0910101F09102012E173F0709F0C8
:102B200078C0E0919704EE2331F010926302109286
:102B300062021092970439014A018B015C0187E51A
:102B400092E09093660680936506C5010E94291362
:102B5000EC01C0905506D09056060E941A0B2091A9
:102B6000600230916102AB01421B530B0417150741
:102B700008F04FC0CC0DDD1D7093610260936002C0
:102B8000E0906202F0906302EC16FD06B0F587015A
:102B90000F5F1F4F1093630200936202C01AD10AA5
:102BA00051E08516910409F053C08CE69BE09093A8
:102BB000660680936506A50170E060E0C6010E948C
:102BC000B7118AEE99E0909366068093650680E1DE
:102BD00090E0801B910B0930110548F0CE0106975B
:102BE0000817190728F1C70141968C1B9D0B0E94FD
:102BF0003B1581E080939D040CC070929A04609212
:102C00009904109202011092010110926302109235
:102C10006202DF91CF911F910F91FF90EF90DF90B3
:102C2000CF90BF90AF909F908F907F906F900895BE
:102C300022E0E22E01E02EE030E04EE350E068E0DA
:102C400070E081E090E00E94FD0789E090E0CFCF46
:102C500082E08816910491F58CE69BE090936606DD
:102C600080936506A50169E070E0C6010E94B71176
:102C70008AEE99E09093660680936506C7010597F2
:102C80000930110508F4B3CFCE01069708171907CC
:102C900028F0CE01801B910B0697A9CF92E0E92E78
:102CA00001E021E030E04EE350E067E070E081E0D9
:102CB00090E00E94FD078FEF9FEF99CF82E0E82E12
:102CC00001E02FE030E040E450E070E060E08FEFA2
:102CD0009FEF0E94FD07A50163E070E0C6010E941E
:102CE000B71187CFFC0180819181009711F00C947E
:102CF000463160E070E0CB010895FC018081918154
:102D0000009711F00C949A380895FC0124813581C4
:102D1000232B39F421E0FB018081882349F020E056
:102D200007C0808191810E94F03921E0892BB9F799
:102D3000822F08950F931F93CF93DF938C01EB01A4
:102D4000FC01808191810097E1F0688179816115B2
:102D50007105A9F0428153812C813D8142175307AF
:102D600070F00E94F9398C819D81F80195838483EC
:102D70001D821C82DF91CF911F910F9108950E94B7
:102D80009A3888819981F801918380838A819B8117
:102D9000938382838C819D81958384831982188299
:102DA0001B821A82E5CFEF92FF920F931F93CF936E
:102DB000DF93EC017B018A0188819981009729F0DA
:102DC0002A813B812417350788F4B8016F5F7F4F54
:102DD0000E942339009791F0998388831B830A838B
:102DE0002C813D81232B11F4FC0110821D830C8367
:102DF000B701888199810E94F9390CC08881998135
:102E0000009711F00E949A38198218821D821C8244
:102E10001B821A82CE01DF91CF911F910F91FF90FB
:102E2000EF900895AF92BF92CF92DF92EF92FF9210
:102E30000F931F93CF93DF93EC016B015A0179013C
:102E40002417350720F48B2D5901E42EF82E198212
:102E500018821B821A821D821C8250E040E069E0C9
:102E600072E0CE010E94D316D60114960D911C91EA
:102E7000A016B10628F5E016F10608F48701D60180
:102E8000ED91FC911197E00FF11FF08010826D9190
:102E90007C916A0D7B1D61157105F1F0FB010190BC
:102EA0000020E9F73197AF01461B570BCE010E9476
:102EB000D316F60180819181080F191FD801FC9269
:102EC000CE01DF91CF911F910F91FF90EF90DF9096
:102ED000CF90BF90AF90089588819981009711F0AD
:102EE0000E949A38198218821D821C821B821A82C3
:102EF000E0CFFC01118210821382128215821482AB
:102F0000FB0101900020E9F73197AF01461B570BF9
:102F10000C94D31685ED8093BC008091EC049091C5
:102F2000ED04A091EE04B091EF040796A11DB11D30
:102F300023E0B695A795979587952A95D1F7209187
:102F4000BC0024FD03C01092EA0408954091EC04F3
:102F50005091ED046091EE047091EF04452B462BE7
:102F6000472B69F30097A105B10541F025E32A95A8
:102F7000F1F700000197A109B109E1CF8091EB04BD
:102F80000C940A0C4F925F926F927F928F929F9255
:102F9000AF92BF92CF92DF92EF92FF920F931F9367
:102FA000CF93DF93CDB7DEB72C970FB6F894DEBF83
:102FB0000FBECDBF29833A834B835C8367012BED22
:102FC0003FE049E450E40E94673320E030E044E30E
:102FD00053E40E949F350E9446376D837E838F8322
:102FE00098872BED3FE049E450E4C801B6010E9408
:102FF000673320E030E044E353E40E949F354B0107
:103000005C010E9446372B013C012BED3FE049E477
:1030100050E469817A818B819C810E94673320E032
:1030200030E044E353E40E949F356B017C010E9431
:10303000463769837A838B839C83C501B4010E94E0
:103040009A354B015C01C701B6010E949A35698728
:103050007A878B879C87CD80DE80EF80F884F7FAB3
:10306000F094F7F8F09429813A814B815C81C30197
:10307000B2010E9467339B01AC01C701B6010E94F7
:10308000A0346B017C0129853A854B855C85C5019F
:10309000B4010E9467339B01AC01C701B6010E94D5
:1030A0009F350E948F3420E030E040E751E40E94D9
:1030B0009F3520E030E044E353E40E9467332BED7A
:1030C0003FE049E450E40E949F352C960FB6F894F7
:1030D000DEBF0FBECDBFDF91CF911F910F91FF904B
:1030E000EF90DF90CF90BF90AF909F908F907F90A8
:1030F0006F905F904F9008952F923F924F925F9202
:103100006F927F928F929F92AF92BF92CF92DF92F7
:10311000EF92FF920F931F93CF93DF93CDB7DEB75C
:1031200062970FB6F894DEBF0FBECDBF0E947D1030
:1031300080917C0490917D04A0917E04B0917F04E5
:1031400089879A87AB87BC8730905906032D10E09A
:1031500020905806A22CB12C80905706912CD401B7
:10316000A053B84FBA8BA98BB3E0AB16B1040CF0E7
:103170008FC381E3881A88EF980A9CE0A90EB11CDE
:10318000B401092C000C880B990B0E94083320E035
:1031900030E048EC52E40E949F350E9447366B01B4
:1031A0007C0120E030E040E85EE30E9467330E944B
:1031B000473669837A838B839C83B40164597D4E3F
:1031C000072E000C880B990B0E94083320E030EA90
:1031D00046EB53E40E9467330E9447362B013C01C3
:1031E000B5016F5F7F4F072E000C880B990B0E9473
:1031F000083321E03DEC44EF51E40E9467330E9424
:1032000047364B015C0124E631EA45E15AE4C3014B
:10321000B2010E94A034A50194010E94A1344B0187
:103220005C01B801110F880B990B0E9408339B01B8
:10323000AC01C501B4010E94A1344B015C01A7019E
:10324000960160E070E080E090E40E94A034298163
:103250003A814B815C810E94A1349B01AC01C50184
:10326000B4010E94A13420E030E94EEB54E40E9406
:10327000A0346B017C0120E030E044EB53E469852D
:103280007A858B859C850E949F359B01AC01C70187
:10329000B6010E94A0346B017C012DE430E54CE7BF
:1032A0005FE30E94673326EB33EC42EB53E40E946A
:1032B000A1340E9407154B015C0123E633E54CE77E
:1032C0005FE3C701B6010E94673321EC3AE34CE8A3
:1032D00053E40E94A1340E94071569837A838B838B
:1032E0009C832BED3FE049E450E4C501B4010E940A
:1032F000673320E030E044E353E40E949F350E94AE
:1033000046372B013C01A5019401C501B4010E947F
:10331000A1342BED3FE049E450E40E94673320E004
:1033200030E044E353E40E949F350E9446374B014E
:103330005C0128EB3EE145EF5FE3C301B2010E946F
:10334000673329813A814B815C810E94A1342B0132
:103350003C012AE037ED43EA5CE3C501B4010E9479
:1033600067339B01AC01C301B2010E94A1340E94EA
:1033700007154B015C0126E036E441EC54E3C7013C
:10338000B6010E9467339B01AC0162E173E88BEBED
:1033900091E40E94A0342BED3FE049E450E40E9408
:1033A000673320E030E044E353E40E949F356B0133
:1033B0007C010E9446376D837E838F8398872BED37
:1033C0003FE049E450E4C501B4010E94673320E0C6
:1033D00030E044E353E40E949F354B015C010E94BE
:1033E00046372B013C01AC019B016D817E818F81B1
:1033F00098850E9467330E940D3520E030E044E359
:1034000053E40E9467332BED3FE049E450E40E940F
:103410009F356D837E838F839887C501B4010E9499
:103420009A354B015C01C701B6010E949A35A30190
:1034300092010E946733A50194010E943B3520E070
:1034400030E044E353E40E9467332BED3FE049E46E
:1034500050E40E949F3520E030E040E751E40E94B4
:103460009F356B017C0120E030E040E751E4698149
:103470007A818B819C810E949F354B015C0120E009
:1034800030E040EC51E4C701B6010E949F350E9434
:10349000473620E030E040EC51E40E9467339B0166
:1034A000AC01C701B6010E94A0346B017C0120E091
:1034B00030E0A9010E94013387FF0AC020E030E01C
:1034C00040EC51E4C701B6010E94A1346B017C01BC
:1034D0008091800490918104A0918204B091830432
:1034E0008D879E87AF87B88B8091780490917904FF
:1034F000A0917A04B0917B0489839A83AB83BC83C7
:1035000020E030E040E451E460918404709185044F
:1035100080918604909187040E94A1342B013C0184
:1035200020E030E040E751E469857A858B859C8511
:103530000E949F359B01AC01C301B2010E94A034DF
:103540002B013C01A7019601C501B4010E94A034E2
:103550009B01AC01C301B2010E94A0346B017C014C
:1035600020E030E040EC51E40E949F350E94473655
:1035700020E030E040EC51E40E9467339B01AC0155
:10358000C701B6010E94A0344B015C0120E030E08D
:10359000A9010E94013387FF0AC020E030E040EC1F
:1035A00051E4C501B4010E94A1344B015C0160915A
:1035B0008A0470E090E080E00E94063320E030E072
:1035C00040E752E40E949F352B013C01A501940184
:1035D0000E94A13460933D0470933E0480933F04A5
:1035E000909340042D813E814F81588569817A8175
:1035F0008B819C810E94A0349F772BED3FE049E4B2
:1036000050E40E94673320E030E044E353E40E943A
:103610009F350E94983720E030E040E85FE30E9449
:10362000A1349B01AC0160E070E080E89FE30E9460
:103630009F350E946B35905820E030E044E353E41E
:103640000E9467332BED3FE049E450E40E949F3530
:10365000E980FA800B811C812D813E814F81588544
:103660000E94C217A50194010E94A134A3019201F6
:103670000E94A134609341047093420480934304F8
:10368000909344046D857E858F8598890E94543778
:1036900026E931E24EE05DE30E94673326E233E53E
:1036A00045E55FE30E94A1342D813E814F8158851D
:1036B0000E94C2176B017C01A50194010E94A134F4
:1036C000A30192010E94A13469877A878B879C8726
:1036D0006093450470934604809347049093480494
:1036E000A7019601C501B4010E94A034609335047E
:1036F000709336048093370490933804E980FA80FD
:103700000B811C812D813E814F81588560E070E0E6
:1037100080E991E40E94C217A50194010E94A1349E
:10372000A30192010E94A1346093490470934A045A
:1037300080934B0490934C042D813E814F8158859A
:1037400060E070E080EA91E40E94C2179B01AC0146
:10375000C501B4010E94A034A30192010E94A134CA
:103760006093310470933204809333049093340453
:103770002BEA3AEA4AE25EE30E94A03460932D0409
:1037800070932E0480932F04909330042D813E81FA
:103790004F81588560E070E080E990EC0E94C2178C
:1037A0009B01AC01C501B4010E94A03460933904AF
:1037B00070933A0480933B0490933C0421E0432DA2
:1037C000622D89899A890E94F31310929C047C309F
:1037D00009F061C086EF860F843008F069C0C090A0
:1037E0005903D0905A03E0905B03F0905C0391E0A2
:1037F000998329853A854B855C85C701B6010E946E
:10380000393718160CF019828091570690E02981FB
:1038100040915906609158068053984F0E94F313C7
:103820006093F7037093F8038093F9039093FA037E
:1038300020E030E048EA51E4C701B6010E94393780
:10384000181654F020E030E040E450E4C701B6011F
:103850000E94013387FF70C085E090E062960FB64A
:10386000F894DEBF0FBECDBFDF91CF911F910F91B6
:10387000FF90EF90DF90CF90BF90AF909F908F9090
:103880007F906F905F904F903F902F900C94270FF8
:1038900089889A8875CC7A3069F5613009F49FCFB0
:1038A000633030F081E080939C0482E080939B043D
:1038B0008091F603813061F593E090939C048093AE
:1038C0009B0483EF860F833030F485E080939C0463
:1038D00081E080939B047C3009F586E0693021F01B
:1038E00087E0693008F07BCF80939C0481E080936F
:1038F0009B0475CF7830E1F683EE860F823008F4B2
:103900006ECF6623A9F282E080939C0483E0CECF41
:103910008430B9F680939C0481E0D1CF713081F47A
:1039200088E0693021F089E06A3009F058CF80934F
:103930009C0470939B0453CF8091890490E08ECFB8
:10394000793009F04CCF8AE080939C0484E0CFCF9B
:10395000FF920F931F93CF93DF93EC01F62E088114
:103960001981C8010E942834F81621F06F2DC80172
:103970000E943034CE01DF91CF911F910F91FF90C3
:103980000895EF92FF920F931F93CF93DF9300D090
:10399000CDB7DEB703E111E0835191407C01C7014F
:1039A000800F911F9A838983F80161918F01CE0165
:1039B00001960E94A81CF1E00B331F0781F783E1F9
:1039C00091E00F900F90DF91CF911F910F91FF9099
:1039D000EF900895AF92BF92CF92DF92EF92FF9255
:1039E0000F931F93CF93DF9300D0CDB7DEB78B013A
:1039F0006B0128E0C20ED11C7B015C01A61AB70A3C
:103A0000C5018E0D9F1D9A838983F70161917F0106
:103A1000CE0101960E94A81CEC14FD0489F7C80190
:103A20000F900F90DF91CF911F910F91FF90EF902A
:103A3000DF90CF90BF90AF900895CF92DF92EF923A
:103A4000FF920F931F93CF93DF9300D0CDB7DEB7D4
:103A500027E7E22E24E0F22E670110E000E0C80123
:103A60000E942834F60181936F010F5F1F4F0032CF
:103A70001105A9F780917704843D09F4A7C010923D
:103A8000930410929404109295041092960484ED7D
:103A90008093770487ED9DECA7EEB0EC80937804DB
:103AA00090937904A0937A04B0937B048DEA9DE708
:103AB000A6EDB2E480937C0490937D04A0937E04F1
:103AC000B0937F0480E090E0ACEAB2E4809380049D
:103AD00090938104A0938204B093830480E090E0EB
:103AE000A0EEB0E48093840490938504A0938604B0
:103AF000B093870481E08093880494E190938904D3
:103B000092E090938A049AE090938B042EE12093A4
:103B10008C0490938D0495E090938E0490938F0481
:103B200023E02093900490939104809392048093D7
:103B3000930410E000E01A830983F70161917F018B
:103B4000CE0101960E94A81C0F5F1F4F0032110585
:103B500091F79BE3E92E91E0F92E07E310E01A8339
:103B60000983F70161917F01CE0101960E94A81C93
:103B70000F5F1F4F0E34110591F782E890E00E940D
:103B8000C11C62E571E088E191E00E94EA1C6AE5EF
:103B900071E08EEA91E00E94EA1C82E6E82E81E064
:103BA000F82E04E412E01A830983F70161917F0182
:103BB000CE0101960E94A81C0F5F1F4F0337F2E051
:103BC0001F0789F78AED92E00E94C11C8091570679
:103BD0008231E8F40E945C1082E10E94EA0D81E0EB
:103BE0000E94D20D81E00E94BA0D82E00E94A20DD7
:103BF0008CE00E941B1080E00E948A0D80E00E94F1
:103C0000591181E00E94901182E00E9490118091F0
:103C10008D048093690480918E0480936C0480915C
:103C20008F0480936D048091900480936E04809142
:103C3000910480936F048091890490E00E94270F83
:103C40000E947C180F900F90DF91CF911F910F91E0
:103C5000FF90EF90DF90CF9008958F929F92AF9258
:103C6000BF92CF92DF92EF92FF920F931F93CF9369
:103C7000DF93CDB7DEB762970FB6F894DEBF0FBE05
:103C8000CDBF8CEA95E00E948809F82E83E4F812F3
:103C90002DC0E4E6CE2EE2E0DE2E10E000E0FAE0F9
:103CA000FF1609F44BC00539110509F447C08CEA29
:103CB00095E00E949609892B91F38CEA95E00E9489
:103CC0007409F82EF60181936F010F5F1F4F61E0B9
:103CD00085E00E94640A64E170E080E090E00E9468
:103CE000E80A60E085E00E94640AD9CF9EE4F916F4
:103CF00081F2E3E5FE1669F28CEA95E00E949609EE
:103D0000892B29F08CEA95E00E947409F5CF60E0D8
:103D100085E00E94640A62960FB6F894DEBF0FBE7B
:103D2000CDBFDF91CF911F910F91FF90EF90DF906A
:103D3000CF90BF90AF909F908F900895F801ED596C
:103D4000FD4F108269E072E0CE0107960E9479175C
:103D500084E692E0FC0101900020E9F7CF0185564E
:103D6000924020916402233409F073C020916502CF
:103D70002D3461F4209166020AE477E3E72EF12CFA
:103D80002E34C1F000E0F12CE12C14C02E3491F55A
:103D90002091660205E932E8E32EF12C213351F03F
:103DA000223309F442C005E96EEAE62EFF24F394BB
:103DB000233341F797E6A92E92E0B92E912C812C5E
:103DC0008350C82ED12C10E0C4018E0D9F1DC81445
:103DD000D9048CF18016910674F5F50161915F01AB
:103DE0009A838983CE0101960E94A81CFFEF8F1A47
:103DF0009F0AEACF233559F42091660205E954E47D
:103E0000E52E52E0F52E2D3409F0BCCFD3CF2A3465
:103E100009F0B8CF2091660205E94AEDE42E42E0B0
:103E2000F42E2D3409F0AECFC5CF05E928E1E22EFE
:103E3000FF24F394BFCF9A83898360E0CE0101967B
:103E40000E94A81C0E941D1DCE0107960E947D168F
:103E500062CF2E3409F0D4C264E672E0CE0101963E
:103E60000E947917BE016F5F7F4FCE0107960E94B7
:103E70009A16CE0101960E947D1623E030E041E0C3
:103E800050E0BE01695F7F4FCE0101960E9412177C
:103E90006CEE71E0CE0101960E948516182FCE01BE
:103EA00001960E947D1611112CC223E030E041E002
:103EB00050E0BE01695F7F4FCE0101960E9412174C
:103EC0006FEE71E0CE0101960E948516182FCE018B
:103ED00001960E947D16111147C223E030E041E0B7
:103EE00050E0BE01695F7F4FCE0101960E9412171C
:103EF00062EF71E0CE0101960E948516182FCE0167
:103F000001960E947D16111132C223E030E041E09B
:103F100050E0BE01695F7F4FCE0101960E941217EB
:103F200065EF71E0CE0101960E948516182FCE0133
:103F300001960E947D1611111DC223E030E041E080
:103F400050E0BE01695F7F4FCE0101960E941217BB
:103F500068EF71E0CE0101960E948516182FCE0100
:103F600001960E947D1611110CC223E030E041E061
:103F700050E0BE01695F7F4FCE0101960E9412178B
:103F80006BEF71E0CE0101960E948516182FCE01CD
:103F900001960E947D1611110CC223E030E041E031
:103FA00050E0BE01695F7F4FCE0101960E9412175B
:103FB0006EEF71E0CE0101960E948516182FCE019A
:103FC00001960E947D161111F7C123E030E041E017
:103FD00050E0BE01695F7F4FCE0101960E9412172B
:103FE00061E072E0CE0101960E948516182FCE0185
:103FF00001960E947D161111E2C123E030E041E0FC
:1040000050E0BE01695F7F4FCE0101960E941217FA
:1040100064E072E0CE0101960E948516182FCE0151
:1040200001960E947D161111CDC123E030E041E0E0
:1040300050E0BE01695F7F4FCE0101960E941217CA
:1040400067E072E0CE0101960E948516182FCE011E
:1040500001960E947D161111B8C123E030E041E0C5
:1040600050E0BE01695F7F4FCE0101960E9412179A
:104070006AE072E0CE0101960E948516182FCE01EB
:1040800001960E947D161111A3C123E030E041E0AA
:1040900050E0BE01695F7F4FCE0101960E9412176A
:1040A0006DE072E0CE0101960E948516182FCE01B8
:1040B00001960E947D1611118EC123E030E041E08F
:1040C00050E0BE01695F7F4FCE0101960E9412173A
:1040D00060E172E0CE0101960E948516182FCE0194
:1040E00001960E947D16111179C123E030E041E074
:1040F00050E0BE01695F7F4FCE0101960E9412170A
:1041000063E172E0CE0101960E948516182FCE0160
:1041100001960E947D16111164C123E030E041E058
:1041200050E0BE01695F7F4FCE0101960E941217D9
:1041300066E172E0CE0101960E948516182FCE012D
:1041400001960E947D1611114FC123E030E041E03D
:1041500050E0BE01695F7F4FCE0101960E941217A9
:1041600069E172E0CE0101960E948516182FCE01FA
:1041700001960E947D1611113AC123E030E041E022
:1041800050E0BE01695F7F4FCE0101960E94121779
:104190006CE172E0CE0101960E948516182FCE01C7
:1041A00001960E947D16111125C123E030E041E007
:1041B00050E0BE01695F7F4FCE0101960E94121749
:1041C0006FE172E0CE0101960E948516182FCE0194
:1041D00001960E947D16111110C123E030E041E0EC
:1041E00050E0BE01695F7F4FCE0101960E94121719
:1041F00062E272E0CE0101960E948516182FCE0170
:1042000001960E947D161111B2C123E030E041E019
:1042100050E0BE01695F7F4FCE0101960E941217E8
:1042200065E272E0CE0101960E948516182FCE013C
:1042300001960E947D1611119DC123E030E041E0FE
:1042400050E0BE01695F7F4FCE0101960E941217B8
:1042500068E272E0CE0101960E948516182FCE0109
:1042600001960E947D16111188C123E030E041E0E3
:1042700050E0BE01695F7F4FCE0101960E94121788
:104280006BE272E0CE0101960E948516182FCE01D6
:1042900001960E947D16111173C123E030E041E0C8
:1042A00050E0BE01695F7F4FCE0101960E94121758
:1042B0006EE272E0CE0101960E948516182FCE01A3
:1042C00001960E947D1611115EC123E030E041E0AD
:1042D00050E0BE01695F7F4FCE0101960E94121728
:1042E00061E372E0CE0101960E948516182FCE017F
:1042F00001960E947D16112309F4A4CD04E210E07A
:1043000042C001E010E02B853C8543E050E0BE0157
:10431000695F7F4FCE0101960E94121789819A81B1
:10432000009759F10E9442316D877E878F87988B65
:104330006E0181E1C80ED11CFE013D967F010E1B6E
:104340001F0BC8018E0D9F1D9A8B898BF701619100
:104350007F01C6010E94A81CCE14DF0491F7CE0194
:1043600001960E947D166ECD05E010E0CCCF09E0ED
:1043700010E0C9CF0DE010E0C6CF60E070E0CB01E7
:10438000D3CF01E110E02B853C8543E050E0BE0136
:10439000695F7F4FCE0101960E941217CE010196F0
:1043A0000E9472161E870D87CE010D960E94A81CD2
:1043B000D6CF02E110E0E7CF03E110E0E4CF04E163
:1043C00010E0E1CF05E110E0DECF06E110E0DBCF49
:1043D00007E110E0D8CF08E110E0D5CF09E110E007
:1043E000D2CF0AE110E0CFCF0BE110E0CCCF0CE14F
:1043F00010E0C9CF0DE110E0C6CF0EE110E0C3CF51
:10440000233509F01FCD80916502843409F01ACD5F
:1044100080916602843509F015CD64E672E0CE0124
:1044200001960E947917BE016F5F7F4FCE010796FC
:104430000E949A16CE0101960E947D160E945C1081
:1044400025E030E043E050E0BE01695F7F4FCE01E0
:1044500001960E941217CE0101960E947216862FB5
:104460000E94BA0DCE0101960E947D1627E030E031
:1044700045E050E0BE01695F7F4FCE0101960E948A
:104480001217CE0101960E947216862F0E94D20D3D
:10449000CE0101960E947D1629E030E047E050E011
:1044A000BE01695F7F4FCE0101960E941217CE01B7
:1044B00001960E947216862F0E94EA0DCE01019687
:1044C0000E947D162BE030E049E050E0BE01695FBC
:1044D0007F4FCE0101960E941217CE0101960E94D5
:1044E0007216862F0E941B10CE0101960E947D1627
:1044F0002DE030E04BE050E0BE01695F7F4FCE0120
:1045000001960E941217CE0101960E947216862F04
:104510000E948A0DCE0101960E947D162FE030E0A8
:104520004DE050E0BE01695F7F4FCE0101960E94D1
:104530001217CE0101960E947216862F0E94591101
:10454000CE0101960E947D1620E130E04FE050E060
:10455000BE01695F7F4FCE0101960E941217CE0106
:1045600001960E947216862F0E94A20DF8CE0FE1CE
:1045700010E009CF00E210E006CF01E210E003CF27
:1045800002E210E000CF03E210E0FDCE0E94A2099B
:1045900081110C942D1E08951F920F920FB60F9249
:1045A00011242F933F934F935F936F937F938F9338
:1045B0009F93AF93BF93EF93FF938CEA95E00E9494
:1045C000AC09FF91EF91BF91AF919F918F917F9136
:1045D0006F915F914F913F912F910F900FBE0F9070
:1045E0001F9018951F920F920FB60F9211242F93C0
:1045F0008F939F93EF93FF93E091BC05F091BD05DE
:104600008081E091C205F091C30582FD1BC09081BD
:104610008091C5058F5F8F732091C605821741F089
:10462000E091C505F0E0E455FA4F958F8093C505FC
:10463000FF91EF919F918F912F910F900FBE0F904F
:104640001F9018958081F4CF1F920F920FB60F9292
:1046500011242F933F938F939F93AF93BF93809198
:10466000460390914703A0914803B09149033091CC
:10467000450323E0230F2D3758F50196A11DB11DE9
:10468000209345038093460390934703A0934803E8
:10469000B093490380914A0390914B03A0914C033E
:1046A000B0914D030196A11DB11D80934A039093D3
:1046B0004B03A0934C03B0934D03BF91AF919F91D7
:1046C0008F913F912F910F900FBE0F901F901895D3
:1046D00026E8230F0296A11DB11DD2CF1F920F9283
:1046E0000FB60F9211240F900FBE0F901F901895C8
:1046F0001F920F920FB60F9211242F933F934F9357
:104700005F936F937F938F939F93AF93BF93EF9339
:10471000FF938091B900887F803609F44AC0F0F594
:10472000883209F4A7C018F5803109F49BC0B8F4A9
:10473000882309F4F9C0883009F494C0FF91EF91FF
:10474000BF91AF919F918F917F916F915F914F91A9
:104750003F912F910F900FBE0F901F9018958831A9
:1047600009F488C0803251F78093E80414C0803483
:1047700009F49DC040F48033B9F38833F9F680938F
:10478000E80485ECB0C0803509F485C0883509F4AB
:1047900096C0883499F60E948A17D0CF883909F4D8
:1047A0008CC038F5883729F050F4883611F08037FE
:1047B00029F683E08093EA041092420357C08838B8
:1047C00009F47BC0803919F0803809F0B7CF8091A7
:1047D0004203803208F071C0E091420381E08E0F05
:1047E000809342038091BB00F0E0EE5DFC4F80833C
:1047F0003DC0803B39F0E0F4803A09F479C0883A52
:1048000009F09CCF84E08093EA0410922103109277
:104810002003E0915003F09151030995809120030A
:1048200081110FC081E0809320031092000309C022
:10483000803C09F4A6CF883C09F4A3CF883B09F05B
:104840007DCFE091210381E08E0F80932103F0E082
:10485000E050FD4F80818093BB00909121038091B7
:10486000200329C08091E5048093BB0085EC8093F0
:10487000BC0064CF9091E7048091E604981758F546
:10488000E091E70481E08E0F8093E704F0E0EC53C1
:10489000FB4F8081E9CFE091E70481E08E0F8093A8
:1048A000E7048091BB00F0E0EC53FB4F80839091D4
:1048B000E7048091E6049817C8F285E8D8CFE09124
:1048C000E70481E08E0F8093E7048091BB00F0E065
:1048D000EC53FB4F80838091E90481115CCF81E030
:1048E0008093E40484EA8093BC001092EA0426CF0B
:1048F00085EC8093BC001092EA04809142038032E0
:1049000030F4E0914203F0E0EE5DFC4F10826091E4
:10491000420370E0E0914E03F0914F0382E293E096
:104920000995109242030ACF1092E80434CF1F92E7
:104930000F920FB60F9211242F933F934F935F93D3
:104940006F937F938F939F93AF93BF93EF93FF9357
:10495000E0915403F09155030995FF91EF91BF91B8
:10496000AF919F918F917F916F915F914F913F9107
:104970002F910F900FBE0F901F9018951092AF05BA
:104980001092AE0588EE93E0A0E0B0E08093B00511
:104990009093B105A093B205B093B3052DEB31E030
:1049A0003093AD052093AC0525EC30E03093B9058C
:1049B0002093B80524EC30E03093BB052093BA0572
:1049C00020EC30E03093BD052093BC0521EC30E0B5
:1049D0003093BF052093BE0522EC30E03093C10533
:1049E0002093C00526EC30E03093C3052093C20528
:1049F0001092C5051092C6051092C7051092C80501
:104A000010924C0610924B0680934D0690934E06E2
:104A1000A0934F06B09350068FEC91E090934A0616
:104A20008093490680E490E090935E0680935D0653
:104A300080E190E09093600680935F0688E090E0CC
:104A40009093620680936106109266061092650646
:104A500081E08093670680E890E00E94FE379093A3
:104A6000640680936306009731F040E850E06FEFF2
:104A700070E00E94E939109268061092690610925F
:104A80006B0610926A0610926D0610926C061092D8
:104A90006F0610926E060E941A0B60937006709358
:104AA00071068093720690937306809163069091CD
:104AB000640690936F0680936E0690936B068093C6
:104AC0006A0661E08DE00E94920A61E08BE00E943C
:104AD000920A61E08AE00E94920A60E08DE00E9402
:104AE000640A60E08BE00E94640A61E08AE00E9450
:104AF000640A8CB580618CBD8CB580648CBD8CB52E
:104B00008F7D8CBD8CB5837F8CBD8CB58C7F8CBD2F
:104B10008DB581608DBD61E086E00E94920A61E002
:104B200087E00E94920A61E088E00E94920A61E0B8
:104B300089E00E94920A60E086E00E94640A60E0D8
:104B400087E00E94640A60E088E00E94640A60E0F6
:104B500089E00E94640A61E08BE00E94640A80E1BF
:104B600080935C068CE180935B0686E080935A0616
:104B700040E081E697E9E3E9FEEF542F537021E02E
:104B800009F020E061E0640F30E0D901A359BE4F85
:104B90008A179B0738F0AF01421B530B840F951FF8
:104BA000462FEBCF4093570621E0622F6150770BE1
:104BB000FB01EE5AF24FE491511103C0223009F487
:104BC000EF5FF0E031E0320F8E179F0720F08E1B71
:104BD0009F0B232FEACF209358068F5F80935906AF
:104BE00080915D0690915E069093560680935506DF
:104BF0000895CF93DF93CDB7DEB7C256D1090FB674
:104C0000F894DEBF0FBECDBF789484B5826084BDBA
:104C100084B5816084BD85B5826085BD85B58160C0
:104C200085BD80916E00816080936E00109281003E
:104C300080918100826080938100809181008160F9
:104C400080938100809180008160809380008091BA
:104C5000B10084608093B1008091B0008160809346
:104C6000B00080917A00846080937A0080917A000D
:104C7000826080937A0080917A00816080937A00CC
:104C800080917A00806880937A001092C10010921F
:104C90001505109214051092F1041092F0040E9470
:104CA000EC0B85E399E0909351038093500386E3E6
:104CB00099E090934F0380934E03E091BC05F091EF
:104CC000BD0582E08083E091B805F091B9051082BE
:104CD000E091BA05F091BB058FEC80831092C4057A
:104CE000E091C005F091C10586E08083E091BE05AA
:104CF000F091BF05808180618083E091BE05F091D5
:104D0000BF05808188608083E091BE05F091BF057A
:104D1000808180688083E091BE05F091BF0580812D
:104D20008F7D808361E085E00E94920A0E947D1061
:104D30000E941D1D8CEA95E09093530380935203CB
:104D40008EE199E090939F0480939E0461E070E06F
:104D500080E090E00E94E80A70E060E08CE00E9451
:104D6000260B70E060E086E10E94260B0E94A30BF8
:104D70006AE070E080E090E00E94E80A80916806B6
:104D8000811133C081E080936806209161063091E3
:104D9000620680915F0690916006289F8001299F9E
:104DA000100D389F100D1124C8010E94FE379093FA
:104DB0006D0680936C06009709F4DDC1A8016FEFC2
:104DC00070E00E94E939F89480916C0690916D062C
:104DD000909364068093630680916A0690916B06B7
:104DE00090936F0680936E06789480E180938100A3
:104DF0001092800081E08093580320E43FE13093DB
:104E0000570320935603309387002093860091E147
:104E10009093810025E13EE03093550320935403A5
:104E200080936F008091890490E00E94270F8CE6A8
:104E30009BE0909366068093650620916106309111
:104E4000620680915F0690916006289FA001299FCD
:104E5000500D389F500D11246FEF70E08091630664
:104E6000909164060E94E939809168068823D1F008
:104E7000F89420916A0630916B0640916306509138
:104E8000640680916C0690916D064217530709F0F5
:104E900075C1909364068093630650936F064093A8
:104EA0006E06789481E00E940A0E68EC70E080E063
:104EB00090E00E94E80A80E00E940A0E9E01245BB6
:104EC0003F4F1901AE014F5F5F4F4A01CE01875A34
:104ED0009F4FA1969FAF8EAFA19711E00E947D10CA
:104EE0008FEF80930001EDE2F4E0A396FFAFEEAF09
:104EF000A397F12CE12C8091F603863009F093C141
:104F000034E0E316F10409F08EC1A0903D04B090A6
:104F10003E04C0903F04D09040044090590350900C
:104F20005A0360905B0370905C032CE230E44EE522
:104F30005FE3C601B5010E94A034A30192010E9463
:104F400001331816E4F023E53AE24EE55FE3C601CB
:104F5000B5010E94A0349B01AC01C301B2010E94C3
:104F6000013387FF0CC00E94A30B83E090E00E94F6
:104F7000A80B6AE070E080E090E00E94E80A80916F
:104F8000F603853009F03EC056E0E516F104D1F590
:104F9000A0904504B0904604C0904704D0904804C7
:104FA0004090590350905A0360905B0370905C03EB
:104FB0002DEC3CEC4CE85EE3C601B5010E94A03448
:104FC000A30192010E9401331816E4F02CE131EAAA
:104FD0004CE85EE3C601B5010E94A0349B01AC0120
:104FE000C301B2010E94013387FF0CC00E94A30BD2
:104FF00082E090E00E94A80B6AE070E080E090E020
:105000000E94E80A8091F603853009F445C186E0E4
:10501000E816F10409F040C1A0904504B0904604A0
:10502000C0904704D09048044090590350905A03D0
:1050300060905B0370905C0325E137E64FE55EE32B
:10504000C601B5010E94A034A30192010E94013360
:105050001816E4F023EB3FE04FE55EE3C601B5012F
:105060000E94A0349B01AC01C301B2010E94013334
:1050700087FF0CC00E94A30B83E090E00E94A80B66
:105080006AE070E080E090E00E94E80AA396EEAD4E
:10509000FFADA397A080B180C280D3804090590318
:1050A00050905A0360905B0370905C038091700491
:1050B000811194C52EE639E54BEA5DE3C601B501E1
:1050C0000E94A034A30192010E9401331816C4F07B
:1050D0002BEA3AEA4AEA5DE3C601B5010E94A03430
:1050E000A30192010E943937181654F4E3E6F0E068
:1050F000F0930201E093010110929A041092990436
:10510000A6019501C301B2010E94393787FDCDC0C8
:105110000E2DE09200012EE034E74AED5AE3C6017D
:10512000B5010E94A134A30192010E9439371816DB
:105130000CF0BBC08091F603863021F4043011F4EA
:10514000109398048091980481110CC00E94A30BC5
:1051500084E090E00E94A80B6AE070E080E090E0BC
:105160000E94E80A1093700424E630E030930201B4
:10517000209301019AC01092680637CE30936406DE
:105180002093630690936F0680936E068ACEF1E0BB
:10519000EF16F104E9F5409031045090320460902C
:1051A000330470903404C0905903D0905A03E090B7
:1051B0005B03F0905C0321E338E04CEA5EE3C3015B
:1051C000B2010E94A034A70196010E940133181673
:1051D000E4F020E83CED4BEA5EE3C301B2010E943B
:1051E000A0349B01AC01C701B6010E94013387FFC7
:1051F0000CC00E94A30B81E090E00E94A80B6AE023
:1052000070E080E090E00E94E80AEE24E394F12C44
:10521000A3962EAD3FADA3972C5F3F4FA3963FAF14
:105220002EAFA39768CE45E0E416F10409F0A7CEAF
:10523000A0904104B0904204C0904304D090440434
:105240004090590350905A0360905B0370905C0348
:105250002DEC3CEC4CE85EE3C601B5010E94A034A5
:10526000A30192010E94013318160CF488CE2CE1A0
:1052700031EA4CE85EE3C601B5010E94A0349B010F
:10528000AC01C301B2010E94013387FF78CE0E94B6
:10529000A30B82E090E06BCEE114F10409F47BCF24
:1052A000C7010297029708F0F1CE3FEFE31AF30A25
:1052B00048E0E416F10409F06ACF10929D048CE6F0
:1052C0009BE090936606809365062091610630917D
:1052D000620680915F0690916006289FA001299F39
:1052E000500D389F500D11246FEF70E080916306D0
:1052F000909164060E94E9390E941A0B20915D0387
:1053000030915E03FB01E21BF30B9F01293E33400A
:1053100030F070935E0360935D030E947C1880916F
:10532000010190910201019709F0A3C00E941A0B9C
:105330002091630330916403AB01421B530B433351
:10534000510578F02091610330916203311151C40D
:10535000203138F470936403609363032F5F2093CC
:105360006103E09161032091630330916403AB0119
:10537000421B530B4131574208F447C4E03109F056
:1053800044C410936203CE2ED12C560190E1A91A89
:10539000B1080E941A0B2B0180915A061F928F931D
:1053A00097EEE92E91E0F92EFF92EF923F922F9225
:1053B0000E94003A80915B061F928F93FF92EF92BA
:1053C0009F928F920E94003A8CE099E0909366063B
:1053D00080936506A101B50181E190E00E94B711BB
:1053E000A401B50182E290E00E94B71180915F03B1
:1053F00090916003F201E81BF90B0FB6F894DEBF41
:105400000FBECDBFE43F31E0F30708F012C49601B0
:105410002A503109B6016B507109EE24E39401E082
:1054200040E250E08FE190E00E94FD079601275096
:105430003109B6016850710940E250E08FE190E017
:105440000E94FD0710939D04E0906103F12C47E852
:1054500056E070E060E0C70140970E94BD0849EA4D
:1054600056E070E060E080E490E08E199F090E94B1
:10547000BD088091010190910201029709F04DC091
:105480000E941A0B2091670330916803FB01E21B15
:10549000F30BF39778F02091650330916603311197
:1054A000D1C3203138F470936803609367032F5F92
:1054B00020936503F09065032091670330916803A2
:1054C000AB01421B530B493B5B4008F4C7C320E1CF
:1054D000F212C8C31093660382E0E82E01E02EE0CA
:1054E00030E04EE350E061E070E081E090E00E9447
:1054F000FD0780E190E0AC014F1951097A014BECB6
:1055000056E0B7010E94BD0810939D044DEE56E091
:10551000B70180E290E00E94BD088091880481502C
:10552000990B2AE0289FB001299F700D1124615F1B
:10553000784F2AE030E050E040E0C1010E946D3138
:10554000740107E3C02ED12CC6010E942834F70154
:1055500081937F01FFEFCF1ADF0A22E8C216D10440
:1055600099F79F928F923F922F9281E991E09F93BA
:105570008F9349E653E05F934F930E94003A23E0F4
:1055800030E050E040E06EE170E089E693E00E9498
:105590007B158091F8038150990B2BE0289FB00177
:1055A000299F700D11246556784F2BE030E050E0B4
:1055B00040E0C4010E946D31C090F903B090FA033D
:1055C000D090F703E0905706F12C90E3E91A98EF9A
:1055D000F90A609158066150770B660F771F660FC6
:1055E000771F685C784F24E030E050E040E08EEBBD
:1055F00093E00E946D31009159068091F60381502D
:10560000990B27E0289FB001299F700D112467593D
:10561000784F27E030E050E040E082EC93E00E94D9
:105620006D31BF92CF929F928F921F92DF92FF9225
:10563000EF928EEB93E09F938F931F920F9382ECE8
:1056400093E09F938F9388E991E09F938F93E9EC88
:10565000F3E0FF93EF930E94003A24E030E042E051
:1056600050E068E270E089EC93E00E947B15E090E6
:105670009C04F12C80919B048150990B2AE1289F76
:10568000B001299F700D11246D55774F2AE130E04C
:1056900050E040E0C4010E946D3131E0E31AF108AE
:1056A0008DE08E9DB0018F9D700D1124605E774F4F
:1056B0002DE030E050E040E0C1010E946D313F92AA
:1056C0002F929F928F9284E392E09F938F934BEF60
:1056D00053E05F934F930E94003A0FB6F894DEBFF9
:1056E0000FBECDBF25E030E050E040E06EE170E05D
:1056F0008BEF93E00E947B15809101019091020154
:10570000069709F06CC10E941A0BAB0180915506F7
:10571000909156066C01F0E2CF1AD108D7FE04C072
:105720006C012FE1C21AD108D594C794809152041C
:1057300090915304FA01E81BF90B759780F0809162
:105740005004909151049111A1C28C151D043CF498
:105750008F5F809350045093530440935204809180
:1057600050042091520430915304421B530B413D8D
:10577000574008F493C28C151D0409F08FC2109392
:105780005104882309F491C280919304811106C0C9
:1057900080914F04811102C010934F0480919404B2
:1057A000811107C080914F04823019F483E0809307
:1057B0004F0480919504811107C080914F0483307C
:1057C00019F484E080934F04A0904F04B12C0E9400
:1057D0001A0B2B0180915A061F928F93F7EEEF2E32
:1057E000F1E0FF2EFF92EF92A1962FADA1972F939C
:1057F000A0963FADA0973F930E94003A80915B0630
:105800001F928F93FF92EF923F922F920E94003A45
:105810008CE099E09093660680936506AE01475A46
:105820005F4FF12CE12CB70190E080E00E94B711AE
:10583000A101B70181E190E00E94B71180914D0470
:1058400090914E04A201481B590B0FB6F894DEBF8D
:105850000FBECDBF443FF1E05F0708F03DC2EE242C
:10586000E39401E026E030E04FE050E065E070E0D6
:105870008EE090E00E94FD0729E030E04FE050E02C
:1058800068E070E08EE090E00E94FD0710939D04B8
:10589000F501EE0FFF1FEE0FFF1FE35DFB4F408092
:1058A000518062807380C301B2010E9447360E941A
:1058B0001836062F70E090E080E00E9406339B01CE
:1058C000AC01C301B2010E94A03420E030E040E707
:1058D00052E40E9467330E9447360E9418361F9296
:1058E0006F931F920F9382EE91E09F938F939F92FD
:1058F0008F920E94003A52E0E52E01E028E030E06D
:105900004EE350E068E070E082E290E00E94FD0724
:105910004CE65BE05093660640936506B501E3E014
:10592000660F771FEA95E1F76F55764F28E030E074
:1059300050E040E088E594E00E946D3148E554E095
:1059400070E060E081E290E00E9452138AEE99E0FC
:105950009093660680936506A40169E070E081E299
:1059600090E00E94521310939D04A0905004B12C1B
:10597000A601405E5F4F4A195B09E12C00E028E078
:1059800030E068E070E080E290E00E94FD07C60130
:105990008A0D9B1D28E030E04FE350E068E070E0A6
:1059A00080960E94FD0727E030E02A193B094FE36B
:1059B00050E06EEF7FEF80E290E00E94FD07B501BE
:1059C000675F7F4F20E130E04FE350E080E290E0FE
:1059D0000E94FD070FB6F894DEBF0FBECDBF82E870
:1059E00090E00E94991327E030E041E050E06EE142
:1059F00070E086E195E00E947B1580910101909115
:105A000002018336910509F088C00E941A0B20918B
:105A1000560430915704FB01E21BF30B9F01293E12
:105A2000334008F465C020915404309155042D3260
:105A300041E034070CF05CC0709357046093560447
:105A40008CE291E0821B930B6CE370E00E94E437E0
:105A5000161617060CF049C19F938F937F936F938F
:105A600082EE91E09F938F939F928F920E94003AD3
:105A70000FB6F894DEBF0FBECDBF8AEE99E09093CB
:105A800066068093650644E452E070E060E083E2DD
:105A900090E00E9452134BE452E068E070E082E232
:105AA00090E00E94521332E0E32E01E02EE030E05D
:105AB00040E250E061E070E090E080E00E94FD078D
:105AC000ECE6FBE0F0936606E0936506A40164E073
:105AD00070E081EE9FEF0E945213809154049091E8
