:020000040000FA
:100000000C94F3060C941B070C941B070C94092505
:100010000C9409250C9409250C941B070C941B07C0
:100020000C941B070C941B070C941B070C941B07C8
:100030000C941B070C9432260C941B070C941B0782
:100040000C94BF240C941B070C948D240C946724EF
:100050000C941B070C941B070C941B070C941B0798
:100060000C9413250C941B07036EDB363D9A99996B
:10007000993DABAAAA2A3E000000803F084AD73B20
:100080003BCE016E84BCBFFDC12F3D6C74319ABD67
:1000900056833DDA3D00C77F11BED9E4BB4C3E918B
:1000A0006BAAAABE000000803F072C7AA5BA6CC5D7
:1000B00090DA3B9365FC8BBC53F810FD3C56928361
:1000C0004DBD879D3AB63DCBC9BF5BBE73DA0FC944
:1000D0003F05A84CCDB2D44EB93836A9020C50B960
:1000E000918688083CA6AAAA2ABE000000803F0686
:1000F00064EC1B3C04BC163E3BE5B93CC93C37C232
:100100009E5A3D660498083EEA69AAAA3E0000008D
:10011000803F4E414E494E495459494E46CDCCCC74
:100120003D0AD7233C17B7D13877CC2B329595E6CB
:10013000241FB14F0A000020410000C84200401CAB
:100140004620BCBE4CCA1B0E5AAEC59D74008040F2
:10015000C020A060E0109050D030B070F008884807
:10016000C828A868E8189858D838B878F80484449B
:10017000C424A464E4149454D434B474F40C8C4CA7
:10018000CC2CAC6CEC1C9C5CDC3CBC7CFC0282424D
:10019000C222A262E2129252D232B272F20A8A4AA7
:1001A000CA2AAA6AEA1A9A5ADA3ABA7AFA0686463B
:1001B000C626A666E6169656D636B676F60E8E4E47
:1001C000CE2EAE6EEE1E9E5EDE3EBE7EFE018141F6
:1001D000C121A161E1119151D131B171F109894977
:1001E000C929A969E9199959D939B979F90585450B
:1001F000C525A565E5159555D535B575F50D8D4D17
:10020000CD2DAD6DED1D9D5DDD3DBD7DFD038343BC
:10021000C323A363E3139353D333B373F30B8B4B16
:10022000CB2BAB6BEB1B9B5BDB3BBB7BFB078747AA
:10023000C727A767E7179757D737B777F70F8F4FB6
:10024000CF2FAF6FEF1F9F5FDF3FBF7FFF0000002B
:1002500000230026002900185A0A0C206000010221
:10026000050507070101010205010401070901084D
:10027000060A070807090901010505050708090815
:10028000080806060908010507060A0709080907FC
:10029000080708090D090908000000050000060606
:1002A000060606020605010405010A0607060603FE
:1002B000050506070A06050700000000057E100672
:1002C00006000030F03CFC300000001000B8C8C64A
:1002D000C88800003000000E9252FC2C22C0100092
:1002E0000010101000D86C44C484988000101010C6
:1002F0001010000E00FE00FE101E0C00002020FC5E
:10030000202000001000000010202020200000000D
:1003100000801000804030180C0210000000000027
:1003200000F88C06020202068C78001010101010E3
:10033000100000FE100088844444442C1810101053
:1003400010101010002422222252CC101010101075
:1003500000406050504844FC4C4040000000000009
:1003600000100000003C2424242424C41010101089
:10037000101000E0B818141414B0E00000101010B1
:100380001010000404C424140C0400100000000029
:1003900000DC262222222222F60C0010101010105F
:1003A0001000003C4442424242C2A47800101010A7
:1003B00010101000001010101060509888040000F9
:1003C00000001040505070300000000000080890FD
:1003D000506010100000000804622212120C00008D
:1003E0001000000000F08C744A4A72C438000010FB
:1003F00010101000008060B08C424C70C0000000F3
:1004000000000000000010FE4242222222548C1004
:1004100010101010101000F08C0602020618800058
:1004200010101010101000FE020282824464381076
:1004300010100000000000FE2222222222101010C4
:10044000101010FE4626222202100000000000F0CC
:100450008C06422222ACE020000010101010000098
:1004600000FC404040404040FE1000000000000002
:1004700010FE1000000000FE1010101000FE606062
:100480005088840210000000000010FE00000000F0
:1004900000101010101010C038047C80C0300C0EFA
:1004A000F830000000001000000000FE0C3040801A
:1004B00000FE100000000010107884020202028288
:1004C000C478000010101010100000FE824242425A
:1004D00022241C1000000000000000F88402020228
:1004E00082028478001010101010101000FE82821A
:1004F000C2C2241810000000001010384C464242BE
:100500004498801010101010101000020202FE0219
:100510000202000000100000007E80000000008049
:10052000FE0000101010101000061CE00080601883
:100530000602000000101000000000061CE000C0D1
:10054000380C186080C0300E000000100000000061
:10055000001010000082C4782050880402021000AD
:100560000000000010100002041830E0100804021F
:1005700000000000100000000002824222120A0661
:10058000021010101010101010FF010101FF1010C8
:100590001010108090909090E0101010101010FE2D
:1005A000101010A060101010100000E0301010109B
:1005B00010001010101010E030101020FE0010106D
:1005C000101010E05048888870001010101010FCB7
:1005D000121000E030101010E0005050505030FE6B
:1005E000101010E01000000000F210000000F840B1
:1005F000404070FE40A0A0101000000010FE10F857
:10060000101010F030101030E0100000001000004A
:10061000000010F810101010E0100000000010F0A2
:100620009808080890F000101010101000F8101032
:10063000109060701010100000E030101010E000FA
:1006400010202010F0F0101010000060B0909010FA
:10065000101010101010FE1010000000101010F0FC
:1006600000000000F000101010101010608000C09A
:1006700030080000101000000030E000E010608042
:100680008060100010100000001010000010B0601A
:10069000E02010100000001010F0000080F08090AA
:1006A000909070009090503030101010101010107A
:1006B00000FF010101FF10101010100000000024C5
:1006C0000027002A0000000000250028002B00045D
:1006D00004040404040404020202020202030303E9
:1006E00003030301020408102040800102040810E3
:1006F0002001020408102000000008000201000090
:10070000030407000000000000000003D0061030C2
:100710000B0606060606060606060606FCFE03C3CC
:10072000FEFC3F7FC3C07F3F0006FFFF000000C00C
:10073000FFFFC0000C0E83C3FE7CFEFFC3C1C0C020
:100740000C8E8383FE3C3071C1C17F3CC0F03CFF06
:10075000FF000F0FC8FFFFC87F7F6363E3C33070E4
:10076000C0C07F3FFCFEC3C3CE8C3F7FC0C07F3F75
:10077000030303E3FF1F0000FFFF00007CFE8383F1
:10078000FE7C3E7FC1C17F3EFCFE0303FEFC317355
:10079000C3C37F3F00003838000000001C1C00006D
:1007A00010100000667E667E666666667E7E7E7ED1
:1007B000606060607E7E7E7E660666067FFE7FFEEF
:1007C0000000101000007FFE7FFE000000007E662B
:1007D0007E66066606667E667E66666666667FFE80
:1007E0007FFE0000101020012007701FF83F707F6F
:1007F000007FF83F001F57FF500077FF773E761CC1
:10080000761C761CFFFF10108004E004F80EFC1F1D
:10081000FE0EFE00FC1FF800FFEA000AFFEE7CEE71
:10082000386E386E386EFFFF4D41534A4944000020
:1008300000004D5553484F4C4C4100005355524118
:100840005500000000004C414E4747415200000057
:10085000004A414E00464542004D4152004150522F
:10086000004D4549004A554E004A554C00414753FA
:1008700000534550004F4B54004E4F5600444553D3
:1008800000004148414400000053454E494E0000DD
:1008900053454C41534100524142550000004B41E9
:1008A0004D495300004A554D27415400534142548D
:1008B000550000004D5548415252414D0000005333
:1008C000484146415200000000005241422E41572B
:1008D000414C0000005241422E414B484952000019
:1008E0004A554D2E4157414C0000004A554D2E416E
:1008F0004B484952000052414A414200000000006A
:10090000005359412742414E0000000052414D41E1
:100910004448414E00000053594157414C000000EB
:100920000000445A554C51412744414800445A550F
:100930004C48494A414800000053594157414C0036
:100940000000000000005359412742414E000000C2
:1009500000000053454E494E00000000000000001A
:100960004B414D4953000000000000000054454E2B
:100970004741482042554C414E0041524F46414864
:1009800000000000000000445A554C48494A4148C4
:1009900000000000544153552741000000000000B2
:1009A00000415359555241000000000000005241DF
:1009B0004D414448414E0000000000004D41524965
:1009C000205055415341000000000000000000008D
:1009D0000000000000004D415249204B4954412085
:1009E0004E4941544B414E20505541534100000067
:1009F0004D415249204B4954412050455242414EAD
:100A000059414B2050554153410053454C414D41B4
:100A100054204D454E4A414C414E4B414E2050557D
:100A20004153410000494D53414B00000053554292
:100A300055480000005445524254000000444855B7
:100A40004841000000445A554852000000415348B4
:100A500041520000004D41475242000000495359A5
:100A600041000000004A554D4154000000000000C4
:100A70000407206000000000005E00000006000681
:100A80000000000000000000000000000000000066
:100A900000000000003C420000423C000A040A0042
:100AA000081C0800402000000808080000606000E2
:100AB000201008047E42427E427E40007252525E06
:100AC0005252527E1E10107E5E5252727E525272EE
:100AD0000202027E7E52527E5E52527E002424002A
:100AE000004424000000000024242424000000000E
:100AF00000000000000000007C12127C7E52522C8C
:100B00003C4242247E42423C7E5252527E1212129B
:100B10003C4252347E10107E427E42002040423ED3
:100B20007E1824427E4040407E0C0C7E7E0C107E5F
:100B30003C42423C7E12120C3C52225C7E12324CF1
:100B40004C525222027E02003E40403E1E20403E59
:100B50007E30307E661818662648483E62524A4605
:100B6000007E42000408102000427E0008040204B7
:100B70004040404000020400205454787E484830F1
:100B8000384444283048487E38545418087C0A0AAF
:100B90004894947C7E100870487A40004080887A9F
:100BA0007E102844003E40407C18187C7C08047865
:100BB000384444387C1414080814147C7C08040855
:100BC00048545424043E44443C40207C1C20403C77
:100BD0007C30307C4C30304C4C90907C6454544C85
:100BE0000000000000000000000000000000000005
:100BF000000005072060000000000000005F00000A
:100C00000007000700147F147F14242A7F2A122370
:100C10001308646236495522500005030000001C89
:100C20002241000041221C00082A1C2A0808083E14
:100C3000080800503000000808080808006060003C
:100C40000020100804023E5149453E00427F40000A
:100C500042615149462141454B311814127F1027FA
:100C6000454545393C4A4949300171090503364932
:100C7000494936064949291E0036360000005636D5
:100C80000000000814224114141414144122140802
:100C9000000201510906324979413E7E1111117E4F
:100CA0007F494949363E414141227F4141221C7FD3
:100CB000494949417F090901013E414151327F08BB
:100CC00008087F00417F41002040413F017F081418
:100CD00022417F404040407F0204027F7F04081091
:100CE0007F3E4141413E7F090909063E4151215E57
:100CF0007F09192946464949493101017F01013FD0
:100D00004040403F1F2040201F7F2018207F631459
:100D10000814630304780403615149454300007FCC
:100D20004141020408102041417F000004020102F9
:100D300004404040404000010204002054545478D4
:100D40007F484444383844444420384444487F3839
:100D500054545418087E090102081454543C7F0866
:100D600004047800447D40002040443D00007F1092
:100D7000284400417F40007C041804787C08040467
:100D80007838444444387C14141408081414187C2B
:100D90007C080404084854545420043F4440203C38
:100DA0004040207C1C2040201C3C4030403C4428DB
:100DB0001028440C5050503C4464544C44000836B5
:100DC000410000007F0000004136080008082A1C8E
:100DD00008081C2A08081F1C1F1E1F1E1F1F1E1F7D
:100DE0001E1F5926573111241FBECFEFD8E0DEBF9A
:100DF000CDBF26E0A4E5B2E001C01D92AE36B20739
:100E0000E1F712E0A0E0B1E0E8EAF9E702C00590FE
:100E10000D92A435B107D9F716E0C2EFD6E004C0B1
:100E20002197FE010E941E38C13FD107C9F70E94D9
:100E300094270C94C73C0C940000209151063091EB
:100E400052068217930780F520915306309154067D
:100E50006217730748F52091550630915606629F38
:100E6000F001639FF00D729FF00D11249C0153E07F
:100E7000359527955A95E1F72E0F3F1FE0915706BC
:100E8000F0915806E20FF31F50819C012770332721
:100E900080E890E002C0959587952A95E2F7442373
:100EA00021F08095852380830895852BFCCF8F9238
:100EB0009F92AF92BF92CF92DF92EF92FF920F93E9
:100EC000CF93DF935C016B014A0179011E141F046B
:100ED000ACF4D0E0C0E0C815D9054CF4402FB60101
:100EE000C5018C0F9D1F0E941D072196F4CF8FEF27
:100EF000C81AD80A81E0E81AF108E8CFDF91CF914B
:100F00000F91FF90EF90DF90CF90BF90AF909F90A8
:100F10008F9008952091590630915A062115310578
:100F200031F1F901349644913196E491803209F41B
:100F30008EE68417E0F090E050E0E40FF52FF11D0D
:100F40008E179F07A4F4F9016491611109C03196CD
:100F5000E491E11105C0F9013296849190E0089581
:100F6000FC01E41BF50B3696E20FF31FF6CF90E081
:100F700080E008952F923F925F926F927F928F92BE
:100F80009F92AF92BF92CF92DF92EF92FF920F9318
:100F90001F93CF93DF937C016B015A014901502EBF
:100FA000CA018E199F09E901C61BD70B01E010E0A9
:100FB00097FF05C09195819591090FEF1FEF66246A
:100FC0006394712CD7FF06C0D195C195D1096624D1
:100FD0006A94762C8C179D07FCF01E01220C331CA2
:100FE0004101881A990AC81BD90BCC0FDD1F452D6A
:100FF000B601C7010E941D07AE14BF0471F1181499
:1010000019042CF0820C931CE00EF11EF0CF8C0E14
:101010009D1EC60CD71CF8CF1C01220C331C51019D
:10102000AC1ABD0A9C012C1B3D0BE901CC0FDD1F46
:10103000452DB601C7010E941D078C149D0469F05F
:101040001A141B042CF0A20CB31CC60CD71CF0CF36
:10105000AC0EBD1EE00EF11EF8CFDF91CF911F91B7
:101060000F91FF90EF90DF90CF90BF90AF909F9047
:101070008F907F906F905F903F902F9008958F9208
:101080009F92AF92BF92CF92DF92EF920F931F93F6
:10109000CF93DF934C016B015A01E901102F4817E0
:1010A00059072CF4982F892D4A01A92EB82ECC155A
:1010B000DD050CF464C0E11221C09E012C193D092C
:1010C0002F5F3F4FA501481959094F5F5F4F0E2D04
:1010D000B601C4010E945707DF91CF911F910F9174
:1010E000EF90DF90CF90BF90AF909F908F9008953A
:1010F0009C2F8D2FE601C92ED82EDFCF012F960110
:10110000A501B601C4010E94BA07CC16DD064CF455
:10111000012F9E01A501B6016F5F7F4FC5010E949F
:10112000BA078A149B0444F4012F9E01A401BE0156
:10113000C50101970E94BA07BE0161507109C61628
:10114000D70644F4012F96012F5F3F4FA401C4013D
:101150000E94BA0782E0E81609F4BECF9E012C195E
:101160003D0921503109A50148195909415051093A
:10117000B6016F5F7F4F0E2DC4010196ABCFE11614
:1011800009F4B6CF012F9E01A501BE01C4010E9442
:10119000BA079C2F8D2FE601C92ED82EB9CF3F92CA
:1011A0004F925F926F927F928F929F92AF92BF9277
:1011B000CF92DF92EF92FF920F931F93CF93DF9323
:1011C0004C01462EFA01549031966490E52CF12C96
:1011D000F7E0EF0EF11C23E0F594E7942A95E1F790
:1011E000EA012296062F172F802F8419861530F5D5
:1011F0005E01FE013490D12CC12C90E8792EC514EB
:10120000C0F4C4018C0D9D1D272D232141E009F45C
:1012100040E0B8010E941D07769439F4FFEFAF1A41
:10122000BF0AF501349080E8782EFFEFCF1ADF0A6D
:10123000E6CFCE0DDF1D0F5F1F4FD6CFDF91CF91D1
:101240001F910F91FF90EF90DF90CF90BF90AF90E4
:101250009F908F907F906F905F904F903F900895F8
:1012600090910305809102052FEF3FEF981748F406
:10127000E92FF0E0EE51FB4F208130E09F5F90932B
:101280000305C901089590910305809102052FEF90
:101290003FEF981748F4E92FF0E0EE51FB4F208123
:1012A00030E09F5F90930305C901089591E090930A
:1012B000E1048093E0041092DF041092DE040895AC
:1012C000CF93DF93C3E0D1E080914B0390914C0327
:1012D0006991DC01ED91FC910190F081E02D09957F
:1012E000B1E0CD30DB0781F7DF91CF91089508950C
:1012F00008950895AF92BF92CF92DF92EF92FF923E
:101300000F931F93CF93DF936C017B018B01040F2D
:10131000151FEB015E01AE18BF08C017D10759F0C9
:101320006991D601ED91FC910190F081E02DC6010B
:101330000995892B79F7C501DF91CF911F910F9105
:10134000FF90EF90DF90CF90BF90AF900895FC0199
:10135000538D448D252F30E0842F90E0821B930B1A
:10136000541710F0CF96089501970895FC01918DC0
:10137000828D981761F0A28DAE0FBF2FB11D5D96C3
:101380008C91928D9F5F9F73928F90E008958FEF65
:101390009FEF0895FC01918D828D981731F0828D19
:1013A000E80FF11D858D90E008958FEF9FEF089570
:1013B000FC01918D228D892F90E0805C9F4F821BD4
:1013C00091098F739927089580EA95E00E94D809C2
:1013D00021E0892B09F420E0822F0895FC01A48DDF
:1013E000A80FB92FB11DA35ABF4F2C91848D90E047
:1013F00001968F739927848FA689B7892C93A0892A
:10140000B1898C91837080648C93938D848D9813B3
:1014100006C00288F389E02D80818F7D8083089546
:10142000EF92FF920F931F93CF93DF93EC0181E034
:10143000888F9B8D8C8D98131AC0E889F9898081DB
:1014400085FF15C09FB7F894EE89FF896083E8890E
:10145000F98980818370806480839FBF81E090E000
:10146000DF91CF911F910F91FF90EF900895F62E8D
:101470000B8D10E00F5F1F4F0F731127E02E8C8D27
:101480008E110CC00FB607FCFACFE889F98980816C
:1014900085FFF5CFCE010E94EE09F1CFEB8DEC0F69
:1014A000FD2FF11DE35AFF4FF0829FB7F8940B8F89
:1014B000EA89FB8980818062CFCFCF93DF93EC01F3
:1014C000888D8823B9F0AA89BB89E889F9898C912C
:1014D00085FD03C0808186FD0DC00FB607FCF7CFE8
:1014E0008C9185FFF2CF808185FFEDCFCE010E94E8
:1014F000EE09E9CFDF91CF910895833081F028F490
:10150000813099F08230A9F008958730A9F08830B1
:10151000C9F08430B1F4809180008F7D03C0809148
:1015200080008F7780938000089584B58F7784BD85
:10153000089584B58F7DFBCF8091B0008F77809325
:10154000B00008958091B0008F7DF9CF1F93CF93A5
:10155000DF93282F30E0F901E950F94F8491F90128
:10156000ED51F94FD491F901E153F94FC491CC23D6
:10157000A9F0162F81110E947D0AEC2FF0E0EE0FEA
:10158000FF1FEB53F94FA591B4918FB7F894EC91ED
:10159000111108C0D095DE23DC938FBFDF91CF916E
:1015A0001F910895DE2BF8CFCF93DF9390E0FC01DD
:1015B000ED51F94F24918153994FFC018491882377
:1015C000D1F090E0880F991FFC01E554F94FA591E7
:1015D000B491FC01EB53F94FC591D49161110EC048
:1015E0009FB7F8948C91E22FE0958E238C932881FD
:1015F000E223E8839FBFDF91CF9108958FB7F894DE
:10160000EC91E22BEC938FBFF6CF3FB7F89480912B
:10161000430390914403A0914503B091460326B53E
:10162000A89B05C02F3F19F00196A11DB11D3FBF1A
:10163000BA2FA92F982F8827BC01CD01620F711DE9
:10164000811D911D42E0660F771F881F991F4A95E3
:10165000D1F708958F929F92AF92BF92CF92DF926F
:10166000EF92FF924B015C010E94050B6B017C0124
:101670000E94050B6C197D098E099F09683E734015
:1016800081059105A8F321E0821A9108A108B1080B
:1016900088EEC80E83E0D81EE11CF11C8114910471
:1016A000A104B10429F7FF90EF90DF90CF90BF9095
:1016B000AF909F908F9008952FB7F89460913F035B
:1016C0007091400380914103909142032FBF089590
:1016D0008F929F92AF92BF92CF92DF92EF92FF9242
:1016E0001F93CF93DF93182FEB010E945C0B6B01CC
:1016F0007C018090060590900705A0900805B090A9
:101700000905C814D904EA04FB0409F453C00E9473
:101710005C0BDC01CB0188199909AA09BB0982334A
:101720009105A105B10578F422E3C22ED12CE12C5C
:10173000F12CA7019601281B390B4A0B5B0BCA0140
:10174000B9010E942A0B1093060110920801C09360
:1017500009018091040190910501890F9927991F32
:10176000810F911D20910701820F911DC80FD91F74
:10177000D195C195D109D0930A01C0930B01E09195
:101780000405F091050509950E945C0B6093060520
:10179000709307058093080590930905DF91CF9119
:1017A0001F91FF90EF90DF90CF90BF90AF909F90F0
:1017B0008F9008950E945C0BA7019601261B370BA2
:1017C000480B590BDA01C901AACF6EE170E086E03F
:1017D0000C94680BBC0182E10C94680BCF93DF93EF
:1017E000CAE0D0E080914B0390914C03DC01ED9175
:1017F000FC910284F385E02D0995019631F0219743
:1018000089F781E0DF91CF91089580E0FBCF2091AF
:101810001903260F3327331F21323105ECF42091B1
:10182000D804FC0190E080E0243069F082E0089563
:10183000A09119032191AC0147505D4FA40FB52F22
:10184000B11D2C930196861798F380911903680FA8
:101850006093190380E0089581E008951092D80400
:1018600081E08093D7041092D20461E082E10E946B
:10187000A60A61E083E10E94A60AE9EBF0E080811C
:101880008E7F808380818D7F808388E48093B80001
:1018900085E48093BC000895CF93DF9391E090930B
:1018A000F8028823B9F0C091B800D091BA008091B5
:1018B000BC008A7B8093BC0060E082E10E94A60AA3
:1018C00060E083E10E94A60A0E942E0CD093BA0029
:1018D000C093B800DF91CF910895CF92DF92EF923D
:1018E000FF920F931F93CF93DF93D091DE0481E09B
:1018F000D13208F09CC0C091E0040E94050B6B013E
:101900007C018091D80481116CC082E08093D8045E
:1019100081E08093D7048FEF8093D6041092D50492
:10192000D093D404A2E9B4E0E2EBF4E080E0D81371
:101930008DC01092D3048091D304CC0FC82BC093D8
:10194000D3048091D204813009F084C01092D20473
:101950000E94050B6B017C018091D3048093BB0036
:101960008091DA049091DB04A091DC04B091DD0455
:10197000892B8A2B8B2BA1F00E94050B0091DA0496
:101980001091DB042091DC043091DD046C197D0999
:101990008E099F09061717072807390708F442C060
:1019A0008091BC0083FDD8CF85EC8093BC000E9461
:1019B000050B6B017C018091D804823009F44CC086
:1019C0008091D6048F3F09F469C08091D60480329B
:1019D00009F466C08091D604803309F463C084E0C2
:1019E00026C08091DA049091DB04A091DC04B091D0
:1019F000DD04892B8A2B8B2B09F483CF0E94050BE6
:101A00000091DA041091DB042091DC043091DD04B4
:101A10006C197D098E099F090617170728073907D2
:101A200008F06FCF8091D9040E944C0C85E0109291
:101A3000DF041092DE041092E104DF91CF911F9138
:101A40000F91FF90EF90DF90CF9008959D9191932B
:101A50008F5F6DCF85EEA9CF8091DA049091DB0482
:101A6000A091DC04B091DD04892B8A2B8B2B09F427
:101A7000A2CF0E94050B0091DA041091DB042091A3
:101A8000DC043091DD046C197D098E099F0906176D
:101A900017072807390708F08ECFC4CF80E0C7CFDB
:101AA00082E0C5CF83E0C3CF0895E0910305809124
:101AB0000205E81730F4F0E0EE51FB4F808190E032
:101AC00008958FEF9FEF089580910205909103058F
:101AD000891B990B0895CF92DF92EF92FF920F939B
:101AE0001F93CF93DF937C01CB018A012091E10406
:101AF000222389F0EB016B01C40ED51ECC15DD0548
:101B000069F06991D701ED91FC910190F081E02D90
:101B1000C7010995F3CF642F0E94070CC801DF911C
:101B2000CF911F910F91FF90EF90DF90CF9008958C
:101B3000CF93DF931F92CDB7DEB769832091E10485
:101B40002223F9F02091DE04203258F021E030E029
:101B5000FC013383228390E080E00F90DF91CF91EE
:101B600008958091DF04E82FF0E0EE56FB4F998155
:101B700090838F5F8093DF048093DE0481E090E0A8
:101B8000ECCF61E0CE0101960E94070CF7CF682FE1
:101B90008DE396E00C94980DCF93C82F88E60E94B1
:101BA000560981E090E00E94C70D8C2F6AE00E94E8
:101BB000EA378295807F682F690F8DE396E00E9457
:101BC000980DCF910C946D0CCF93C82F88E60E948E
:101BD000560983E090E00E94C70D8C2F6AE00E94B6
:101BE000EA378295807F682F690F8DE396E00E9427
:101BF000980DCF910C946D0CCF93C82F88E60E945E
:101C0000560984E090E00E94C70D8C2F6AE00E9484
:101C1000EA378295807F682F690F8DE396E00E94F6
:101C2000980DCF910C946D0CCF93C82F88E60E942D
:101C3000560985E090E00E94C70D8C2F6AE00E9453
:101C4000EA378295807F682F690F8DE396E00E94C6
:101C5000980DCF910C946D0CCF93C82F88E60E94FD
:101C6000560986E090E00E94C70D8C2F6AE00E9422
:101C7000EA378295807F682F690F8DE396E00E9496
:101C8000980DCF910C946D0C90E080E008958EBD7E
:101C90000DB407FEFDCF0895813029F480918604AC
:101CA00061E0813009F060E085E00C94A60A4F9273
:101CB0005F926F927F928F929F92AF92BF92CF92DC
:101CC000DF92EF92FF920F931F93CF93DF93E1E0A8
:101CD000F7E08491EDEEF6E0D491E9EDF6E0C49101
:101CE000CC2309F4E5C081110E947D0AEC2FF0E0BD
:101CF000EE0FFF1FE35BFD4FA591B491EC91ED2337
:101D000009F4D6C00091550610915606000F111F18
:101D1000000F111F809153069091540624E0969570
:101D200087952A95E1F721E08227817030E020E055
:101D3000AA24BB24A01AB10A40915306509154061C
:101D4000241735070CF08EC0609062067090630611
:101D5000E0905506F090560640915D0650E029014E
:101D600090E1490E511C81112EC0240F351F2E9D6C
:101D7000E0012F9DD00D3E9DD00D1124C60DD71D25
:101D80003E01600E711E6301C00ED11E4601800E21
:101D9000911E1E141F040CF060C0D4018D914D01E2
:101DA0000E94470EF60181916F010E94470ED301F8
:101DB0008D913D010E94470E89910E94470EB1E02E
:101DC000EB1AF108E6CF9201241B350B2E9DC001C2
:101DD0002F9D900D3E9D900D1124EC012197C60D75
:101DE000D71DCA0DDB1D6E01CA0CDB1C4601EFEFCF
:101DF0008E1A9E0A2196680E791ECA0CDB1CEC18FE
:101E0000FD08C6018E0D9F1D181619064CF5F1E050
:101E1000CF1AD108D6011196EC91F0E0E35BFE4FAA
:101E200084910E94470ED401EE914D01F0E0E35BF6
:101E3000FE4F84910E94470EEA91F0E0E35BFE4F73
:101E400084910E94470ED301EE913D01F0E0E35BE7
:101E5000FE4F84910E94470ED4CF81E092016CCF57
:101E600080E0FCCF60E089E00E94D40A61E088E075
:101E70000E94A60A60E088E00E94A60A80915D06A2
:101E800061E081FF60E087E00E94A60A80915D0624
:101E900061E080FF60E086E00E94A60A61E089E0E0
:101EA0000E94D40A80915D068F5F837080935D06E7
:101EB000DF91CF911F910F91FF90EF90DF90CF9026
:101EC000BF90AF909F908F907F906F905F904F905A
:101ED0000895CF93DF93EC0161E089E00E94D40A7A
:101EE000E0E8F0E0808180688083A0914F03B091AA
:101EF00050039E010E94A6342AE096958795779517
:101F000067952A95D1F77093890060938800809136
:101F10005103806180938100DF91CF910895CF922A
:101F2000DF92EF92FF920F931F93CF93DF93D82FFF
:101F30000E94050B6B017C018091D804811165C062
:101F4000CD2F81E08093D8048093D7049FEF9093A6
:101F5000D6041092D5049D0F9093D4048093D3049B
:101F60008091D304806D8093D3048091D20481301A
:101F700009F07FC01092D2040E94050B6B017C0116
:101F80008091D3048093BB008091DA049091DB04AC
:101F9000A091DC04B091DD04892B8A2B8B2BA1F05E
:101FA0000E94050B0091DA041091DB042091DC04FF
:101FB0003091DD046C197D098E099F0906171707FA
:101FC0002807390708F442C08091BC0083FDD8CFB0
:101FD00085EC8093BC000E94050B6B017C01809115
:101FE000D804813009F447C08091D5048D1710F4CE
:101FF000C091D504A2EBB4E0E2EEF4E080E08C17EF
:1020000051F19D9191938F5FFACF8091DA04909175
:10201000DB04A091DC04B091DD04892B8A2B8B2B8F
:1020200009F48ACF0E94050B0091DA041091DB04B9
:102030002091DC043091DD046C197D098E099F0923
:10204000061717072807390708F076CF8091D904BB
:102050000E944C0CC0E010920305C09302058C2F27
:10206000DF91CF911F910F91FF90EF90DF90CF9074
:10207000089585EEAECF8091DA049091DB04A091B3
:10208000DC04B091DD04892B8A2B8B2B09F4A7CFBC
:102090000E94050B0091DA041091DB042091DC040E
:1020A0003091DD046C197D098E099F090617170709
:1020B0002807390708F093CFC9CFCF93C82F88E6F8
:1020C0000E94560982E090E00E94C70D0E946D0CAC
:1020D00081E090E00E948F0F0E94430986FF24C098
:1020E000CD30C8F084EF8C0F6AE00E94EA37C82F29
:1020F000C295C07FC90FC06688E60E94560982E07B
:1021000090E00E94C70D6C2F8DE396E00E94980D21
:10211000CF910C946D0C8C2F6AE00E94EA37829567
:10212000807FC82FC90FE8CF8C2F6AE00E94EA3762
:10213000C82FC295C07FC90FCF7BDECFCF9388E673
:102140000E94560982E090E00E94C70D0E946D0C2B
:1021500081E090E00E948F0F0E944309C82F88E61B
:102160000E94560982E090E00E94C70D6C2F6F7BA1
:102170008DE396E00E94980DCF910C946D0CCF9258
:10218000DF92EF92FF920F931F93CF93DF9388E636
:102190000E94560990E080E00E94C70D0E946D0CDD
:1021A00087E090E00E948F0F0E9443098F77282FCD
:1021B00030E094E0359527959A95E1F7922F990FA5
:1021C000990FC22FC91BCC0FC80F0E9443099C0155
:1021D00044E0359527954A95E1F72F703327922FE4
:1021E000990F990F122F191B110F180F0E944309F5
:1021F0009C0154E0359527955A95E1F72F703327C8
:10220000922F990F990FD22FD91BDD0FD80F0E9453
:1022100043090E9443099C0164E0359527956A951E
:10222000E1F72F703327922F990F990FF22EF91A99
:10223000FF0CF80E0E9443099C0174E03595279528
:102240007A95E1F72F703327922F990F990F022F6C
:10225000091B000F080F0E9443099C01E4E035951B
:102260002795EA95E1F72F703327922F990F990F51
:10227000291B220F820F80934B0600934C06F0928D
:102280004D06D0934E0610934F06C0935006612F13
:1022900070E090E080E00E942C3320E030E040E7E6
:1022A00052E40E94C5356B017C016D2F70E090E017
:1022B00080E00E942C339B01AC01C701B6010E9453
:1022C000C7346B017C016C2F70E090E080E00E94CD
:1022D0002C3320E030E041E655E40E94C5359B01F7
:1022E000AC01C701B6010E94C734609352037093DA
:1022F0005303809354039093550388E60E94560934
:1023000083E090E00E94C70D0E946D0C81E090E098
:102310000E948F0F0E944309982F92959F708F7093
:102320002AE0929F800D11248093110480914F0622
:1023300081111EC08091500681111AC081E00E9457
:102340004C0E64E670E080E090E00E942A0B80E092
:102350000E944C0E64E873E080E090E0DF91CF9142
:102360001F910F91FF90EF90DF90CF900C942A0B6C
:10237000DF91CF911F910F91FF90EF90DF90CF9061
:102380000895CF93C82F88E60E94560990E080E018
:102390000E94C70D8C2F6AE00E94EA378295807FE9
:1023A000682F690F8DE396E00E94980D0E946D0CD6
:1023B00088E60E9456098FE090E00E94C70D0E94B7
:1023C0006D0C81E090E00E948F0F0E944309C82F9E
:1023D00088E60E9456098FE090E00E94C70D6C2F9E
:1023E0006F778DE396E00E94980DCF910C946D0C61
:1023F000CF93C82F88E60E9456098EE090E00E9495
:10240000C70D0E946D0C81E090E00E948F0F0E942A
:102410004309C13089F4C82FCE7F88E60E9456094F
:102420008EE090E00E94C70D6C2F8DE396E00E9435
:10243000980DCF910C946D0CC82FCD7FEECF2F92BD
:102440003F924F925F926F927F928F929F92AF9244
:10245000BF92CF92DF92EF92FF920F931F93CF9391
:10246000DF93CDB7DEB766970FB6F894DEBF0FBE29
:10247000CDBF9E8B8D8B4B01E0915906F0915A0692
:10248000309709F45EC03396E491DA010D90002094
:10249000E9F711975D01A41AB50A58874F832E2FCB
:1024A00030E03C8B2B8BA114B10409F44AC0EF81BE
:1024B000F885A191F887EF834091590650915A060B
:1024C000FA0133966490A03209F054C08EE60E945F
:1024D0008A077C0101E080915B06811100E0262DD6
:1024E00030E0A701B4018D899E890E9457076D894C
:1024F0007E896E0D7F1D7E8B6D8B71E0A716B104FA
:1025000099F001E080915B06811100E02B893C8904
:1025100041E050E0B4018D899E890E9457078D8962
:102520009E8901969E8B8D8B91E0A91AB1088091AE
:10253000510690915206ED89FE89E817F9070CF4CF
:10254000B2CF66960FB6F894DEBF0FBECDBFDF9157
:10255000CF911F910F91FF90EF90DF90CF90BF90A0
:10256000AF909F908F907F906F905F904F903F9033
:102570002F900895FA01349624913196E491A21790
:1025800008F4CCC08E2F90E0BC01620F711DA6171D
:1025900017060CF0C3C0A21B712C9301295F3F4F9B
:1025A00063E0359527956A95E1F7FA01B4916A2FB2
:1025B00070E0B11196C03196E491E11192C0FA0138
:1025C00032965490629FD001639FB00D729FB00D00
:1025D00011245A9EC0015B9E900D11240696840F13
:1025E000951FE52CF12C4D895E894E0D5F1D14164B
:1025F00015060CF07CCFA401460D571D14161506C8
:102600000CF075CF2D83F1E0FE8340915B06411104
:102610001E82CD88DE88452D50E05E874D87BC0147
:102620006C197D09788B6F87C90101979A8B898B0B
:10263000F3013897FA87E9878C2DFD898F1B851563
:1026400008F055CF2F8538892C0D3D1D3C832B83F9
:10265000312C212C1A8219823D814981431708F0BF
:1026600059C0EB81FC814490313049F029893A8985
:1026700049815A8199858A852417350711F0922D51
:10268000832D092F182FB801685F7F4F7C876B87D8
:10269000021513056CF06016710654F0B401600F5A
:1026A000711F40915B0640FE4E81C6010E941D07CE
:1026B00046940F5F1F4F8B859C858017910741F7CC
:1026C000E981FA813196FA83E983F8E02F0E311C13
:1026D0002B813C814D855E85240F351F3C832B83E8
:1026E000BBCFFB013696E40FF51F54900696840F7E
:1026F000951FFA01369660E0A61709F472CF74911F
:10270000729FA001739F500D1124840F951F6F5F5E
:102710003196F2CF5FEFC51AD50A8ECFF12CE12C9E
:10272000E6CEEF92FF920F931F93CF93DF93EC01CE
:1027300009900020E9F72197C81BD90B8C01F12CD7
:10274000E12C209779F0F80181918F010E948A078E
:10275000E80EF91EC130D10519F0FFEFEF1AFF0A9C
:102760002197EFCFC701DF91CF911F910F91FF907C
:10277000EF900895AF92BF92CF92DF92EF920F93B6
:10278000CF93DF93EC016B01CB010E949113E09199
:102790005906F0915A0630E020E0309721F0339648
:1027A000E4912E2F30E06091490670914A06681B33
:1027B000790B77FF02C06F5F7F4F5B01B594A794E1
:1027C0002C0F3D1FAC014A0D5B1DE12C00E0BE014A
:1027D000C50101970E943F08A601BE01C501DF9116
:1027E000CF910F91EF90DF90CF90BF90AF900C946E
:1027F0001F120F931F93CF93DF93CAE0D5E08C0194
:102800000A501540C8018C0F9D1F0E944E348993B9
:1028100085E0C03AD807B1F78AE095E0DF91CF9123
:102820001F910F910895CF92DF92EF92FF92CF9375
:10283000DF93EC0170E090E080E00E942E3320E016
:1028400030E04CEE51E40E948D3324EF3DEF47EE33
:1028500051E40E94C6340E946D366B017C01CC5855
:10286000D540BE0190E080E00E942C332CEF3EE288
:1028700041EB53E40E948D330E946D369B01AC0105
:10288000C701B6010E94C73420E030E040E85FE3B2
:102890000E94C7340E943736DF91CF91FF90EF90AE
:1028A000DF90CF9008954F925F926F927F928F92B8
:1028B0009F92AF92BF92CF92DF92EF92FF92CF930F
:1028C000DF9300D000D000D0CDB7DEB76E83D42E1A
:1028D0002D83633020F40197262F245F2E837C0103
:1028E00030EDE31A37E0F30AB70190E080E00E9490
:1028F0002C3320E030EA46EB53E40E948D330E94F3
:102900006D3669837A838B839C834E81642F70E05C
:102910006F5F7F4F072E000C880B990B0E942E33A0
:1029200021E03DEC44EF51E40E948D330E946D366E
:102930002B013C01C70164E670E00E94F63790E08D
:1029400080E00E942C334B015C01A301920169815C
:102950007A818B819C810E94C7349B01AC01C501A7
:10296000B4010E94C7344B015C01C70160E971E00A
:102970000E94F63790E080E00E942C339B01AC016E
:10298000C501B4010E94C7344B015C016D2D70E09C
:1029900090E080E00E942E339B01AC01C501B401A0
:1029A0000E94C73420E030E044E453E40E94C7347E
:1029B0000E943736C0908A040C2C000CDD08EE080B
:1029C000FF08C60ED71EE81EF91E5D81C50ED11C7C
:1029D000E11CF11CC701B6010E942E332CEF3EE230
:1029E00041EB53E40E94C5350E946D3620E030E88B
:1029F00041EB54E40E94C7340E9437362B013C015E
:102A000061E0C2010E941314C616D706E806F90653
:102A100034F08FEF481A580A680A780AF1CF21E09B
:102A2000421A510861087108812C912C5401839439
:102A30004D825982682D8D8199810E941314C6168A
:102A4000D706E806F90634F03FEF831A930AA30A83
:102A5000B30AF0CF41E0841A9108A108B108682DAB
:102A6000C2010E9413145FEFC51AD50AE50AF50AE0
:102A7000A7019601261B370B480B590BCA01B90158
:102A80003DE083169104A104B10449F4635E7F4FD5
:102A90008F4F9F4F8CE0882E912CA12CB12C782D3C
:102AA0008D81998126960FB6F894DEBF0FBECDBFFB
:102AB000DF91CF91FF90EF90DF90CF90BF90AF90DC
:102AC0009F908F907F906F905F904F900895CF92DE
:102AD000DF92EF92FF926B017C0120E030E044EB4B
:102AE00053E40E94C5350E946D3620E030E044EB8F
:102AF00053E40E948D339B01AC01C701B6010E94D3
:102B0000C6346B017C0120E030E0A9010E9427332C
:102B100087FF0AC020E030E044EB53E4C701B60170
:102B20000E94C7346B017C01C701B601FF90EF9092
:102B3000DF90CF900895EF92FF920F931F93CF9362
:102B4000DF93CDB7DEB764970FB6F894DEBF0FBE44
:102B5000CDBF7C01EBE4F6E084811F928F938381EB
:102B60001F928F938CE392E09F938F938E010F5F60
:102B70001F4F1F930F930E94263AB801C7010E946E
:102B8000BA1381E0809391040FB6F894DEBF0FBEB4
:102B9000CDBF64960FB6F894DEBF0FBECDBFDF91F8
:102BA000CF911F910F91FF90EF9008956F927F92B8
:102BB0008F929F92AF92BF92CF92DF92EF92FF924D
:102BC0000F931F93CF93DF93E0910101F0910201E6
:102BD0002E173F0709F078C0E0918B04EE2331F007
:102BE000109257021092560210928B0439014A013A
:102BF0008B015C0187E592E090935A068093590619
:102C0000C5010E949113EC01C0904906D0904A067C
:102C10000E945C0B2091540230915502AB01421B83
:102C2000530B0417150708F04FC0CC0DDD1D709332
:102C3000550260935402E0905602F0905702EC1651
:102C4000FD06B0F587010F5F1F4F109357020093E9
:102C50005602C01AD10A51E08516910409F053C0FA
:102C600080EF9BE090935A0680935906A50170E08F
:102C700060E0C6010E941F128EE69AE090935A0609
:102C80008093590680E190E0801B910B093011057B
:102C900048F0CE014A970817190728F1C7018C1B85
:102CA0009D0B85960E949B1581E0809391040CC03A
:102CB00070928E0460928D041092020110920101B4
:102CC0001092570210925602DF91CF911F910F91EF
:102CD000FF90EF90DF90CF90BF90AF909F908F903C
:102CE0007F906F90089522E0E22E01E02EE030E028
:102CF0004FE150E068E070E090E080E00E943F0823
:102D000089E090E0CFCF82E08816910491F580EFC2
:102D10009BE090935A0680935906A50169E070E004
:102D2000C6010E941F128EE69AE090935A06809385
:102D30005906C70105970930110508F4B3CFCE0134
:102D400089970817190728F0CE01801B910B8997E6
:102D5000A9CF92E0E92E01E021E030E04FE150E020
:102D600067E070E090E080E00E943F088FEF9FEF07
:102D700099CF82E0E82E01E02FE030E040E250E021
:102D800070E060E08FEF9FEF0E943F08A50163E0D5
:102D900070E0C6010E941F1287CF4F925F926F9220
:102DA0007F928F929F92AF92BF92CF92DF92EF92DB
:102DB0000F93CF93DF93CDB7DEB72A970FB6F89472
:102DC000DEBF0FBECDBF5C010E945C0BC090490608
:102DD000D0904A06D7FE03C02FEFC21AD20AD5946C
:102DE000C7942091F6023091F702AB01421B530BBE
:102DF0004531510580F02091F4023091F5023111F6
:102E0000E8C02C151D043CF42F5F2093F40270934E
:102E1000F7026093F602E091F4022091F6023091FD
:102E2000F702AB01421B530B413D574008F4D9C098
:102E3000EC151D0409F0D5C091E09093F502EE2346
:102E400009F4D6C080918704811107C08091F302F4
:102E5000811103C081E08093F30280918804811185
:102E600007C08091F302823019F483E08093F3026B
:102E700080918904811107C08091F302833019F495
:102E800084E08093F302A090F302B12CF501EE0FE1
:102E9000FF1FEE0FFF1FEA5AFC4F408051806280F7
:102EA0007380C301B2010E946D360E943E36962E99
:102EB00070E090E080E00E942C339B01AC01C301E4
:102EC000B2010E94C63420E030E040E752E40E94A4
:102ED0008D330E946D360E943E361F926F931F9273
:102EE0009F928CE392E09F938F93AE014F5F5F4F71
:102EF0004A015F934F930E94263A92E0E92E01E047
:102F000028E030E04EE150E068E070E081E090E0E1
:102F10000E943F0880EF9BE090935A0680935906E9
:102F2000B50123E0660F771F2A95E1F76B5D754FBA
:102F300028E030E050E040E08CE494E00E949331DF
:102F40006CE474E090E080E00E94BA138EE69AE0B0
:102F500090935A0680935906B40189E090E00E944C
:102F6000BA1381E080939104A090F402B12CA601E1
:102F70004A195B09E12C00E02FE030E070E060E0EE
:102F800090E080E00E943F082FE030E04FE350E007
:102F900070E060E0C5018C0D9D1D0E943F080FB6DA
:102FA000F894DEBF0FBECDBF2A960FB6F894DEBFF1
:102FB0000FBECDBFDF91CF910F91EF90DF90CF90FB
:102FC000BF90AF909F908F907F906F905F904F9049
:102FD0000895313009F01FCF222309F41CCF21506E
:102FE00014CFE1112FCF8091F502813009F02ACF63
:102FF0008091F302873030F48F5F8093F302109258
:10300000F50220CFB0928E04A0928D04109202019E
:10301000109201011092F302F2CFFC0180819181A4
:10302000009711F00C946C3160E070E0CB010895D2
:10303000FC0180819181009711F00C94C0380895B3
:10304000FC0124813581232B39F421E0FB018081AF
:10305000882349F020E007C0808191810E94163AC0
:1030600021E0892BB9F7822F08950F931F93CF93F7
:10307000DF938C01EB01FC01808191810097E1F0ED
:103080006881798161157105A9F0428153812C8194
:103090003D814217530770F00E941F3A8C819D8139
:1030A000F801958384831D821C82DF91CF911F914B
:1030B0000F9108950E94C03888819981F801918309
:1030C00080838A819B81938382838C819D81958378
:1030D0008483198218821B821A82E5CFEF92FF92B5
:1030E0000F931F93CF93DF93EC017B018A018881BB
:1030F0009981009729F02A813B812417350788F4AC
:10310000B8016F5F7F4F0E944939009791F0998312
:1031100088831B830A832C813D81232B11F4FC01BE
:1031200010821D830C83B701888199810E941F3A08
:103130000CC088819981009711F00E94C0381982D3
:1031400018821D821C821B821A82CE01DF91CF91D0
:103150001F910F91FF90EF900895AF92BF92CF9281
:10316000DF92EF92FF920F931F93CF93DF93EC01C7
:103170006B015A0179012417350720F48B2D590171
:10318000E42EF82E198218821B821A821D821C825C
:1031900050E040E066EF71E0CE010E946E18D6016B
:1031A00014960D911C91A016B10628F5E016F106B3
:1031B00008F48701D601ED91FC911197E00FF11F02
:1031C000F08010826D917C916A0D7B1D61157105F7
:1031D000F1F0FB0101900020E9F73197AF01461BA8
:1031E000570BCE010E946E18F60180819181080F65
:1031F000191FD801FC92CE01DF91CF911F910F9141
:10320000FF90EF90DF90CF90BF90AF9008958881AE
:103210009981009711F00E94C038198218821D828E
:103220001C821B821A82E0CFFC0111821082138261
:10323000128215821482FB0101900020E9F7319778
:10324000AF01461B570B0C946E1885ED8093BC00A4
:103250008091DA049091DB04A091DC04B091DD044C
:103260000796A11DB11D23E0B695A7959795879563
:103270002A95D1F72091BC0024FD03C01092D804F8
:1032800008954091DA045091DB046091DC04709160
:10329000DD04452B462B472B69F30097A105B105AB
:1032A00041F025E32A95F1F700000197A109B10942
:1032B000E1CF8091D9040C944C0C4F925F926F92A5
:1032C0007F928F929F92AF92BF92CF92DF92EF92B6
:1032D000FF920F931F93CF93DF93CDB7DEB72C9759
:1032E0000FB6F894DEBF0FBECDBF29833A834B8360
:1032F0005C8367012BED3FE049E450E40E948D338D
:1033000020E030E044E353E40E94C5350E946C376E
:103310006D837E838F8398872BED3FE049E450E4F3
:10332000C801B6010E948D3320E030E044E353E44D
:103330000E94C5354B015C010E946C372B013C019A
:103340002BED3FE049E450E469817A818B819C81D7
:103350000E948D3320E030E044E353E40E94C53501
:103360006B017C010E946C3769837A838B839C8319
:10337000C501B4010E94C0354B015C01C701B60113
:103380000E94C03569877A878B879C87CD80DE80D5
:10339000EF80F884F7FAF094F7F8F09429813A81F5
:1033A0004B815C81C301B2010E948D339B01AC0152
:1033B000C701B6010E94C6346B017C0129853A859C
:1033C0004B855C85C501B4010E948D339B01AC0126
:1033D000C701B6010E94C5350E94B53420E030E037
:1033E00040E751E40E94C53520E030E044E353E477
:1033F0000E948D332BED3FE049E450E40E94C53537
:103400002C960FB6F894DEBF0FBECDBFDF91CF91E3
:103410001F910F91FF90EF90DF90CF90BF90AF90F2
:103420009F908F907F906F905F904F9008952F9214
:103430003F924F925F926F927F928F929F92AF9244
:10344000BF92CF92DF92EF92FF920F931F93CF9391
:10345000DF93CDB7DEB762970FB6F894DEBF0FBE2D
:10346000CDBF0E94BF108091700490917104A09113
:103470007204B091730489879A87AB87BC873090B8
:103480004D06032D10E020904C06A22CB12C80900C
:103490004B06912CD401A053B84FBA8BA98BB3E043
:1034A000AB16B1040CF08FC381E3881A88EF980A39
:1034B0009CE0A90EB11CB401092C000C880B990BDF
:1034C0000E942E3320E030E048EC52E40E94C535E3
:1034D0000E946D366B017C0120E030E040E85EE345
:1034E0000E948D330E946D3669837A838B839C831F
:1034F000B40164597D4E072E000C880B990B0E9475
:103500002E3320E030EA46EB53E40E948D330E94D4
:103510006D362B013C01B5016F5F7F4F072E000C0C
:10352000880B990B0E942E3321E03DEC44EF51E4CF
:103530000E948D330E946D364B015C0124E631EA16
:1035400045E15AE4C301B2010E94C634A5019401C9
:103550000E94C7344B015C01B801110F880B990B15
:103560000E942E339B01AC01C501B4010E94C734F7
:103570004B015C01A701960160E070E080E090E4FF
:103580000E94C63429813A814B815C810E94C734F4
:103590009B01AC01C501B4010E94C73420E030E9B1
:1035A0004EEB54E40E94C6346B017C0120E030E015
:1035B00044EB53E469857A858B859C850E94C535EB
:1035C0009B01AC01C701B6010E94C6346B017C01AE
:1035D0002DE430E54CE75FE30E948D3326EB33ECBE
:1035E00042EB53E40E94C7340E9467154B015C0113
:1035F00023E633E54CE75FE3C701B6010E948D3354
:1036000021EC3AE34CE853E40E94C7340E9467156A
:1036100069837A838B839C832BED3FE049E450E4FC
:10362000C501B4010E948D3320E030E044E353E44F
:103630000E94C5350E946C372B013C01A501940105
:10364000C501B4010E94C7342BED3FE049E450E4CA
:103650000E948D3320E030E044E353E40E94C535FE
:103660000E946C374B015C0128EB3EE145EF5FE3C4
:10367000C301B2010E948D3329813A814B815C8163
:103680000E94C7342B013C012AE037ED43EA5CE39A
:10369000C501B4010E948D339B01AC01C301B2018D
:1036A0000E94C7340E9467154B015C0126E036E496
:1036B00041EC54E3C701B6010E948D339B01AC017C
:1036C00062E173E88BEB91E40E94C6342BED3FE09E
:1036D00049E450E40E948D3320E030E044E353E4B9
:1036E0000E94C5356B017C010E946C376D837E831F
:1036F0008F8398872BED3FE049E450E4C501B40186
:103700000E948D3320E030E044E353E40E94C5354D
:103710004B015C010E946C372B013C01AC019B0109
:103720006D817E818F8198850E948D330E94333513
:1037300020E030E044E353E40E948D332BED3FE082
:1037400049E450E40E94C5356D837E838F8398875A
:10375000C501B4010E94C0354B015C01C701B6012F
:103760000E94C035A30192010E948D33A5019401EE
:103770000E94613520E030E044E353E40E948D3341
:103780002BED3FE049E450E40E94C53520E030E0F5
:1037900040E751E40E94C5356B017C0120E030E038
:1037A00040E751E469817A818B819C810E94C53513
:1037B0004B015C0120E030E040EC51E4C701B60170
:1037C0000E94C5350E946D3620E030E040EC51E4A7
:1037D0000E948D339B01AC01C701B6010E94C63423
:1037E0006B017C0120E030E0A9010E94273387FFB4
:1037F0000AC020E030E040EC51E4C701B6010E946D
:10380000C7346B017C018091740490917504A09180
:103810007604B09177048D879E87AF87B88B8091AF
:103820006C0490916D04A0916E04B0916F04898333
:103830009A83AB83BC8320E030E040E451E46091A4
:1038400078047091790480917A0490917B040E94AD
:10385000C7342B013C0120E030E040E751E46985AA
:103860007A858B859C850E94C5359B01AC01C3017F
:10387000B2010E94C6342B013C01A7019601C5018B
:10388000B4010E94C6349B01AC01C301B2010E9485
:10389000C6346B017C0120E030E040EC51E40E9432
:1038A000C5350E946D3620E030E040EC51E40E94C6
:1038B0008D339B01AC01C701B6010E94C6344B0198
:1038C0005C0120E030E0A9010E94273387FF0AC095
:1038D00020E030E040EC51E4C501B4010E94C7345F
:1038E0004B015C0160917E0470E090E080E00E94FA
:1038F0002C3320E030E040E752E40E94C5352B0134
:103900003C01A50194010E94C73460936603709343
:10391000670380936803909369032D813E814F81F3
:10392000588569817A818B819C810E94C6349F77FA
:103930002BED3FE049E450E40E948D3320E030E07D
:1039400044E353E40E94C5350E94BE3720E030E0D6
:1039500040E85FE30E94C7349B01AC0160E070E087
:1039600080E89FE30E94C5350E949135905820E081
:1039700030E044E353E40E948D332BED3FE049E413
:1039800050E40E94C535E980FA800B811C812D81AD
:103990003E814F8158850E945D19A50194010E94C6
:1039A000C734A30192010E94C73460936A037093E5
:1039B0006B0380936C0390936D036D857E858F857B
:1039C00098890E947A3726E931E24EE05DE30E9451
:1039D0008D3326E233E545E55FE30E94C7342D8150
:1039E0003E814F8158850E945D196B017C01A501C4
:1039F00094010E94C734A30192010E94C7346987D1
:103A00007A878B879C8760936E0370936F03809394
:103A1000700390937103A7019601C501B4010E9440
:103A2000C63460935E0370935F038093600390934A
:103A30006103E980FA800B811C812D813E814F81D9
:103A4000588560E070E080E991E40E945D19A5016D
:103A500094010E94C734A30192010E94C73460936D
:103A600072037093730380937403909375032D8195
:103A70003E814F81588560E070E080EA91E40E94C9
:103A80005D199B01AC01C501B4010E94C634A301BC
:103A900092010E94C73460935A0370935B03809332
:103AA0005C0390935D032BEA3AEA4AE25EE30E94EC
:103AB000C6346093560370935703809358039093D2
:103AC00059032D813E814F81588560E070E080E987
:103AD00090EC0E945D199B01AC01C501B4010E94EC
:103AE000C63460936203709363038093640390937E
:103AF000650321E0432D622D89899A890E94531420
:103B0000109290047C3009F061C086EF860F8430FB
:103B100008F069C0C0905203D0905303E090540362
:103B2000F090550391E0998329853A854B855C8512
:103B3000C701B6010E945F3718160CF019828091F8
:103B40004B0690E0298140914D0660914C068053D0
:103B5000984F0E945314609312047093130480933F
:103B600014049093150420E030E048EA51E4C701C2
:103B7000B6010E945F37181654F020E030E040E4B0
:103B800050E4C701B6010E94273387FF70C085E06B
:103B900090E062960FB6F894DEBF0FBECDBFDF9106
:103BA000CF911F910F91FF90EF90DF90CF90BF903A
:103BB000AF909F908F907F906F905F904F903F90CD
:103BC0002F900C94690F89889A8875CC7A3069F5A2
:103BD000613009F49FCF633030F081E0809390042E
:103BE00082E080938F0480911104813061F593E02D
:103BF0009093900480938F0483EF860F833030F48A
:103C000085E08093900481E080938F047C3009F5F7
:103C100086E0693021F087E0693008F07BCF80933F
:103C2000900481E080938F0475CF7830E1F683EEC5
:103C3000860F823008F46ECF6623A9F282E080936B
:103C4000900483E0CECF8430B9F68093900481E075
:103C5000D1CF713081F488E0693021F089E06A3099
:103C600009F058CF8093900470938F0453CF8091C4
:103C70007D0490E08ECF793009F04CCF8AE08093BC
:103C8000900484E0CFCFFF920F931F93CF93DF93E5
:103C9000EC01F62E08811981C8010E944E34F816F5
:103CA00021F06F2DC8010E945634CE01DF91CF91D3
:103CB0001F910F91FF900895EF92FF920F931F9322
:103CC000CF93DF9300D0CDB7DEB703E111E083518E
:103CD00091407C01C701800F911F9A838983F8016D
:103CE00061918F01CE0101960E94431EF1E00733DE
:103CF0001F0781F783E191E00F900F90DF91CF9143
:103D00001F910F91FF90EF900895AF92BF92CF92C5
:103D1000DF92EF92FF920F931F93CF93DF9300D028
:103D2000CDB7DEB78B016B0128E0C20ED11C7B0141
:103D30005C01A61AB70AC5018E0D9F1D9A8389835F
:103D4000F70161917F01CE0101960E94431EEC14A0
:103D5000FD0489F7C8010F900F90DF91CF911F915B
:103D60000F91FF90EF90DF90CF90BF90AF900895AC
:103D7000CF92DF92EF92FF920F931F93CF93DF9337
:103D800000D0CDB7DEB72BE6E22E24E0F22E67019D
:103D900010E000E0C8010E944E34F60181936F01EB
:103DA0000F5F1F4F00321105A9F780916B04843D0E
:103DB00009F4A7C010928704109288041092890415
:103DC00010928A0484ED80936B0487ED9DECA7EE3E
:103DD000B0EC80936C0490936D04A0936E04B09348
:103DE0006F048DEA9DE7A6EDB2E480937004909392
:103DF0007104A0937204B093730480E090E0ACEA85
:103E0000B2E48093740490937504A0937604B09305
:103E1000770480E090E0A0EEB0E480937804909383
:103E20007904A0937A04B0937B0481E080937C04AE
:103E300094E190937D0492E090937E049AE09093B5
:103E40007F042EE1209380049093810495E0909369
:103E500082049093830423E0209384049093850448
:103E6000809386048093870410E000E01A8309831E
:103E7000F70161917F01CE0101960E94431E0F5F01
:103E80001F4F0032110591F797E3E92E91E0F92ECB
:103E900007E310E01A830983F70161917F01CE01E6
:103EA00001960E94431E0F5F1F4F0E34110591F7BC
:103EB00082E890E00E945C1E6EE471E088E191E08F
:103EC0000E94851E66E571E08EEA91E00E94851EE3
:103ED0008EE5E82E81E0F82E04E412E01A830983CF
:103EE000F70161917F01CE0101960E94431E0F5F91
:103EF0001F4F0337F2E01F0789F78AED92E00E9417
:103F00005C1E80914B068231E8F40E949E1082E193
:103F10000E942C0E81E00E94140E81E00E94FC0D94
:103F200082E00E94E40D8CE00E945D1080E00E941F
:103F3000CC0D80E00E94C11181E00E94F81182E066
:103F40000E94F8118091810480935D048091820425
:103F50008093600480918304809361048091840441
:103F600080936204809185048093630480917D0432
:103F700090E00E94690F0E94171A0F900F90DF9136
:103F8000CF911F910F91FF90EF90DF90CF90089508
:103F90008F929F92AF92BF92CF92DF92EF92FF9259
:103FA0000F931F93CF93DF93CDB7DEB762970FB612
:103FB000F894DEBF0FBECDBF80EA95E00E94CA092B
:103FC000F82E83E4F8122DC0E8E5CE2EE2E0DE2ED6
:103FD00010E000E0FAE0FF1609F44BC005391105C6
:103FE00009F447C080EA95E00E94D809892B91F333
:103FF00080EA95E00E94B609F82EF60181936F01E0
:104000000F5F1F4F61E085E00E94A60A64E170E047
:1040100080E090E00E942A0B60E085E00E94A60A02
:10402000D9CF9EE4F91681F2E3E5FE1669F280EA43
:1040300095E00E94D809892B29F080EA95E00E943A
:10404000B609F5CF60E085E00E94A60A62960FB639
:10405000F894DEBF0FBECDBFDF91CF911F910F91BE
:10406000FF90EF90DF90CF90BF90AF909F908F9098
:104070000895F801E95AFD4F108266EF71E0CE0114
:1040800007960E94141988E592E0FC010190002037
:10409000E9F7CF018955924020915802233409F065
:1040A00073C0209159022D3461F420915A020AE420
:1040B00077E3E72EF12C2E34C1F000E0F12CE12C57
:1040C00014C02E3491F520915A0205E932E8E32E0E
:1040D000F12C213351F0223309F442C005E96EEA94
:1040E000E62EFF24F394233341F79BE5A92E92E0BB
:1040F000B92E912C812C8350C82ED12C10E0C401F4
:104100008E0D9F1DC814D9048CF18016910674F58C
:10411000F50161915F019A838983CE0101960E9426
:10412000431EFFEF8F1A9F0AEACF233559F42091DF
:104130005A0205E954E4E52E52E0F52E2D3409F03B
:10414000BCCFD3CF2A3409F0B8CF20915A0205E969
:104150004AEDE42E42E0F42E2D3409F0AECFC5CF67
:1041600005E928E1E22EFF24F394BFCF9A838983E7
:1041700060E0CE0101960E94431E0E94B81ECE014F
:1041800007960E94181862CF2E3409F0D4C268E551
:1041900072E0CE0101960E941419BE016F5F7F4F3D
:1041A000CE0107960E943518CE0101960E9418187C
:1041B00023E030E041E050E0BE01695F7F4FCE0177
:1041C00001960E94AD1869ED71E0CE0101960E9442
:1041D0002018182FCE0101960E94181811112CC218
:1041E00023E030E041E050E0BE01695F7F4FCE0147
:1041F00001960E94AD186CED71E0CE0101960E940F
:104200002018182FCE0101960E941818111147C2CC
:1042100023E030E041E050E0BE01695F7F4FCE0116
:1042200001960E94AD186FED71E0CE0101960E94DB
:104230002018182FCE0101960E941818111132C2B1
:1042400023E030E041E050E0BE01695F7F4FCE01E6
:1042500001960E94AD1862EE71E0CE0101960E94B7
:104260002018182FCE0101960E94181811111DC296
:1042700023E030E041E050E0BE01695F7F4FCE01B6
:1042800001960E94AD1865EE71E0CE0101960E9484
:104290002018182FCE0101960E94181811110CC277
:1042A00023E030E041E050E0BE01695F7F4FCE0186
:1042B00001960E94AD1868EE71E0CE0101960E9451
:1042C0002018182FCE0101960E94181811110CC247
:1042D00023E030E041E050E0BE01695F7F4FCE0156
:1042E00001960E94AD186BEE71E0CE0101960E941E
:1042F0002018182FCE0101960E9418181111F7C12D
:1043000023E030E041E050E0BE01695F7F4FCE0125
:1043100001960E94AD186EEE71E0CE0101960E94EA
:104320002018182FCE0101960E9418181111E2C111
:1043300023E030E041E050E0BE01695F7F4FCE01F5
:1043400001960E94AD1861EF71E0CE0101960E94C6
:104350002018182FCE0101960E9418181111CDC1F6
:1043600023E030E041E050E0BE01695F7F4FCE01C5
:1043700001960E94AD1864EF71E0CE0101960E9493
:104380002018182FCE0101960E9418181111B8C1DB
:1043900023E030E041E050E0BE01695F7F4FCE0195
:1043A00001960E94AD1867EF71E0CE0101960E9460
:1043B0002018182FCE0101960E9418181111A3C1C0
:1043C00023E030E041E050E0BE01695F7F4FCE0165
:1043D00001960E94AD186AEF71E0CE0101960E942D
:1043E0002018182FCE0101960E94181811118EC1A5
:1043F00023E030E041E050E0BE01695F7F4FCE0135
:1044000001960E94AD186DEF71E0CE0101960E94F9
:104410002018182FCE0101960E941818111179C189
:1044200023E030E041E050E0BE01695F7F4FCE0104
:1044300001960E94AD1860E072E0CE0101960E94E4
:104440002018182FCE0101960E941818111164C16E
:1044500023E030E041E050E0BE01695F7F4FCE01D4
:1044600001960E94AD1863E072E0CE0101960E94B1
:104470002018182FCE0101960E94181811114FC153
:1044800023E030E041E050E0BE01695F7F4FCE01A4
:1044900001960E94AD1866E072E0CE0101960E947E
:1044A0002018182FCE0101960E94181811113AC138
:1044B00023E030E041E050E0BE01695F7F4FCE0174
:1044C00001960E94AD1869E072E0CE0101960E944B
:1044D0002018182FCE0101960E941818111125C11D
:1044E00023E030E041E050E0BE01695F7F4FCE0144
:1044F00001960E94AD186CE072E0CE0101960E9418
:104500002018182FCE0101960E941818111110C101
:1045100023E030E041E050E0BE01695F7F4FCE0113
:1045200001960E94AD186FE072E0CE0101960E94E4
:104530002018182FCE0101960E9418181111B2C12F
:1045400023E030E041E050E0BE01695F7F4FCE01E3
:1045500001960E94AD1862E172E0CE0101960E94C0
:104560002018182FCE0101960E94181811119DC114
:1045700023E030E041E050E0BE01695F7F4FCE01B3
:1045800001960E94AD1865E172E0CE0101960E948D
:104590002018182FCE0101960E941818111188C1F9
:1045A00023E030E041E050E0BE01695F7F4FCE0183
:1045B00001960E94AD1868E172E0CE0101960E945A
:1045C0002018182FCE0101960E941818111173C1DE
:1045D00023E030E041E050E0BE01695F7F4FCE0153
:1045E00001960E94AD186BE172E0CE0101960E9427
:1045F0002018182FCE0101960E94181811115EC1C3
:1046000023E030E041E050E0BE01695F7F4FCE0122
:1046100001960E94AD186EE172E0CE0101960E94F3
:104620002018182FCE0101960E941818112309F4A2
:10463000A4CD04E210E042C001E010E02B853C85EF
:1046400043E050E0BE01695F7F4FCE0101960E94BA
:10465000AD1889819A81009759F10E9468316D8760
:104660007E878F87988B6E0181E1C80ED11CFE0179
:104670003D967F010E1B1F0BC8018E0D9F1D9A8B4F
:10468000898BF70161917F01C6010E94431ECE1400
:10469000DF0491F7CE0101960E9418186ECD05E057
:1046A00010E0CCCF09E010E0C9CF0DE010E0C6CF9C
:1046B00060E070E0CB01D3CF01E110E02B853C85B9
:1046C00043E050E0BE01695F7F4FCE0101960E943A
:1046D000AD18CE0101960E940D181E870D87CE01E0
:1046E0000D960E94431ED6CF02E110E0E7CF03E112
:1046F00010E0E4CF04E110E0E1CF05E110E0DECF0F
:1047000006E110E0DBCF07E110E0D8CF08E110E0D0
:10471000D5CF09E110E0D2CF0AE110E0CFCF0BE115
:1047200010E0CCCF0CE110E0C9CF0DE110E0C6CF16
:104730000EE110E0C3CF233509F01FCD809159025F
:10474000843409F01ACD80915A02843509F015CDD0
:1047500068E572E0CE0101960E941419BE016F5FF8
:104760007F4FCE0107960E943518CE0101960E9418
:1047700018180E949E1025E030E043E050E0BE0192
:10478000695F7F4FCE0101960E94AD18CE01019660
:104790000E940D18862F0E94FC0DCE0101960E94EA
:1047A000181827E030E045E050E0BE01695F7F4F18
:1047B000CE0101960E94AD18CE0101960E940D18FF
:1047C000862F0E94140ECE0101960E94181829E02F
:1047D00030E047E050E0BE01695F7F4FCE010196B7
:1047E0000E94AD18CE0101960E940D18862F0E94DE
:1047F0002C0ECE0101960E9418182BE030E049E003
:1048000050E0BE01695F7F4FCE0101960E94AD1856
:10481000CE0101960E940D18862F0E945D10CE01D8
:1048200001960E9418182DE030E04BE050E0BE01E8
:10483000695F7F4FCE0101960E94AD18CE010196AF
:104840000E940D18862F0E94CC0DCE0101960E9469
:1048500018182FE030E04DE050E0BE01695F7F4F57
:10486000CE0101960E94AD18CE0101960E940D184E
:10487000862F0E94C111CE0101960E94181820E1D6
:1048800030E04FE050E0BE01695F7F4FCE010196FE
:104890000E94AD18CE0101960E940D18862F0E942D
:1048A000E40DF8CE0FE110E009CF00E210E006CFF2
:1048B00001E210E003CF02E210E000CF03E210E0DB
:1048C000FDCE0E94E40981110C94C81F08951F9227
:1048D0000F920FB60F9211242F933F934F935F9334
:1048E0006F937F938F939F93AF93BF93EF93FF93B8
:1048F00080EA95E00E94EE09FF91EF91BF91AF91A0
:104900009F918F917F916F915F914F913F912F91E7
:104910000F900FBE0F901F9018951F920F920FB619
:104920000F9211242F938F939F93EF93FF93E09116
:10493000B005F091B1058081E091B605F091B70521
:1049400082FD1BC090818091B9058F5F8F7320918C
:10495000BA05821741F0E091B905F0E0E056FA4F50
:10496000958F8093B905FF91EF919F918F912F9132
:104970000F900FBE0F901F9018958081F4CF1F925B
:104980000F920FB60F9211242F933F938F939F9303
:10499000AF93BF9380913F0390914003A091410357
:1049A000B091420330913E0323E0230F2D3758F599
:1049B0000196A11DB11D20933E0380933F03909368
:1049C0004003A0934103B09342038091430390912D
:1049D0004403A0914503B09146030196A11DB11D6A
:1049E0008093430390934403A0934503B0934603FD
:1049F000BF91AF919F918F913F912F910F900FBEDB
:104A00000F901F90189526E8230F0296A11DB11D47
:104A1000D2CF1F920F920FB60F9211240F900FBE9C
:104A20000F901F9018951F920F920FB60F9211249E
:104A30002F933F934F935F936F937F938F939F93A6
:104A4000AF93BF93EF93FF938091B900887F803637
:104A500009F44AC0F0F5883209F4A7C018F580318E
:104A600009F49BC0B8F4882309F4F9C0883009F42C
:104A700094C0FF91EF91BF91AF919F918F917F91E2
:104A80006F915F914F913F912F910F900FBE0F90BB
:104A90001F901895883109F488C0803251F78093AF
:104AA000D60414C0803409F49DC040F48033B9F3B7
:104AB0008833F9F68093D60485ECB0C0803509F4CC
:104AC00085C0883509F496C0883499F60E94251966
:104AD000D0CF883909F48CC038F5883729F050F4E4
:104AE000883611F0803729F683E08093D80410923D
:104AF0003B0357C0883809F47BC0803919F08038EF
:104B000009F0B7CF80913B03803208F071C0E0918B
:104B10003B0381E08E0F80933B038091BB00F0E06C
:104B2000E55EFC4F80833DC0803B39F0E0F4803A85
:104B300009F479C0883A09F09CCF84E08093D804C6
:104B400010921A0310921903E0914903F0914A035D
:104B500009958091190381110FC081E08093190399
:104B60001092F90209C0803C09F4A6CF883C09F4F0
:104B7000A3CF883B09F07DCFE0911A0381E08E0F2F
:104B800080931A03F0E0E750FD4F80818093BB00D3
:104B900090911A038091190329C08091D3048093C6
:104BA000BB0085EC8093BC0064CF9091D5048091CC
:104BB000D404981758F5E091D50481E08E0F8093C6
:104BC000D504F0E0EE54FB4F8081E9CFE091D504AD
:104BD00081E08E0F8093D5048091BB00F0E0EE540D
:104BE000FB4F80839091D5048091D4049817C8F22C
:104BF00085E8D8CFE091D50481E08E0F8093D5046D
:104C00008091BB00F0E0EE54FB4F80838091D7048D
:104C100081115CCF81E08093D20484EA8093BC0050
:104C20001092D80426CF85EC8093BC001092D80453
:104C300080913B03803230F4E0913B03F0E0E55E8D
:104C4000FC4F108260913B0370E0E0914703F091CC
:104C500048038BE193E0099510923B030ACF109231
:104C6000D60434CF1F920F920FB60F9211242F93B8
:104C70003F934F935F936F937F938F939F93AF93E4
:104C8000BF93EF93FF93E0914D03F0914E0309958D
:104C9000FF91EF91BF91AF919F918F917F916F9114
:104CA0005F914F913F912F910F900FBE0F901F90EA
:104CB00018951092A3051092A20588EE93E0A0E04B
:104CC000B0E08093A4059093A505A093A605B093AA
:104CD000A70529EB31E03093A1052093A00525EC31
:104CE00030E03093AD052093AC0524EC30E03093F8
:104CF000AF052093AE0520EC30E03093B105209352
:104D0000B00521EC30E03093B3052093B20522ECDE
:104D100030E03093B5052093B40526EC30E03093B5
:104D2000B7052093B6051092B9051092BA051092F6
:104D3000BB051092BC051092400610923F0680936E
:104D4000410690934206A0934306B09344068BEC31
:104D500091E090933E0680933D0680E290E0909330
:104D600052068093510680E190E090935406809320
:104D7000530684E090E09093560680935506109277
:104D80005A061092590681E080935B0680E490E019
:104D90000E9424389093580680935706009731F06C
:104DA00040E450E06FEF70E00E940F3A10925C0612
:104DB00010925D0610925F0610925E0610926106D8
:104DC0001092600610926306109262060E945C0BBD
:104DD00060936406709365068093660690936706F9
:104DE00080915706909158069093630680936206CF
:104DF00090935F0680935E0661E08DE00E94D40A86
:104E000061E08BE00E94D40A61E08AE00E94D40A4B
:104E100060E08DE00E94A60A60E08BE00E94A60A96
:104E200061E08AE00E94A60A8CB580618CBD8CB5D9
:104E300080648CBD8CB58F7D8CBD8CB5837F8CBD23
:104E40008CB58C7F8CBD8DB581608DBD61E086E0B9
:104E50000E94D40A61E087E00E94D40A61E088E001
:104E60000E94D40A61E089E00E94D40A60E086E0F2
:104E70000E94A60A60E087E00E94A60A60E088E03F
:104E80000E94A60A60E089E00E94A60A61E08BE029
:104E90000E94A60A80E1809350068CE180934F0621
:104EA00086E080934E0640E081E697E9E3E9FEEF75
:104EB000542F537021E009F020E061E0640F30E0EE
:104EC000D901A359BE4F8A179B0738F0AF01421B87
:104ED000530B840F951F462FEBCF40934B0621E0D9
:104EE000622F6150770BFB01EA52F24FE4915111AE
:104EF00003C0223009F4EF5FF0E031E0320F8E178B
:104F00009F0720F08E1B9F0B232FEACF20934C0688
:104F10008F5F80934D068091510690915206909339
:104F20004A06809349060895CF93DF93CDB7DEB745
:104F3000C456D1090FB6F894DEBF0FBECDBF78942A
:104F400084B5826084BD84B5816084BD85B582608E
:104F500085BD85B5816085BD80916E00816080933F
:104F60006E001092810080918100826080938100A8
:104F700080918100816080938100809180008160B8
:104F8000809380008091B10084608093B100809113
:104F9000B00081608093B00080917A00846080933B
:104FA0007A0080917A00826080937A0080917A0002
:104FB000816080937A0080917A00806880937A0083
:104FC0001092C10010920305109202051092DF04A6
:104FD0001092DE040E942E0C87E799E090934A031A
:104FE0008093490388E799E09093480380934703AF
:104FF000E091B005F091B10582E08083E091AC05CD
:10500000F091AD051082E091AE05F091AF058FEC07
:1050100080831092B805E091B405F091B50586E063
:105020008083E091B205F091B30580818061808337
:10503000E091B205F091B305808188608083E091B2
:10504000B205F091B305808180688083E091B2055C
:10505000F091B30580818F7D808361E085E00E94BF
:10506000D40A0E94BF100E94B81E80EA95E0909377
:105070004C0380934B0380E699E090930505809361
:10508000040561E070E080E090E00E942A0B70E08F
:1050900060E08CE00E94680B70E060E086E10E94B6
:1050A000680B0E94E50B6AE070E080E090E00E94EF
:1050B0002A0B80915C06811133C081E080935C06ED
:1050C00020915506309156068091530690915406D2
:1050D000289F8001299F100D389F100D1124C801B1
:1050E0000E9424389093610680936006009709F42B
:1050F000E1C1A8016FEF70E00E940F3AF89480912F
:1051000060069091610690935806809357068091AF
:105110005E0690915F069093630680936206789492
:1051200080E1809381001092800081E080935103A0
:1051300020E43FE13093500320934F0330938700E6
:105140002093860091E19093810027E53EE0309323
:105150004E0320934D0380936F0080917D0490E077
:105160000E94690F80EF9BE090935A068093590646
:105170002091550630915606809153069091540621
:10518000289FA001299F500D389F500D11246FEFCB
:1051900070E080915706909158060E940F3A8091D6
:1051A0005C068823D1F0F89420915E0630915F066A
:1051B0004091570650915806809160069091610683
:1051C0004217530709F079C1909358068093570608
:1051D0005093630640936206789481E00E944C0EDF
:1051E00068EC70E080E090E00E942A0B80E00E9472
:1051F0004C0EFF24F3949E01245B3F4F5901AE01F6
:105200004F5F5F4F6A01CE01875A9F4FA1969FAFB4
:105210008EAFA19740EF242E4BE0342E0E94BF109A
:105220008FEF8093000136E5832E33E0932E10E05C
:1052300000E080911104863009F09AC10430110514
:1052400009F096C18091660390916703A09168036D
:10525000B0916903A5968CAF9DAFAEAFBFAFA597D8
:105260004090520350905303609054037090550344
:105270002CE230E44EE55FE3BC01CD010E94C63470
:10528000A30192010E942733181604F123E53AE2A4
:105290004EE55FE3A5966CAD7DAD8EAD9FADA59758
:1052A0000E94C6349B01AC01C301B2010E942733A6
:1052B00087FF0CC00E94E50B83E090E00E94EA0BA0
:1052C0006AE070E080E090E00E942A0B8091110477
:1052D000853009F048C00630110509F044C08091BE
:1052E0006E0390916F03A0917003B0917103A59626
:1052F0008CAF9DAFAEAFBFAFA5974090520350901B
:10530000530360905403709055032DEC3CEC4CE833
:105310005EE3BC01CD010E94C634A30192010E944C
:105320002733181604F12CE131EA4CE85EE3A59628
:105330006CAD7DAD8EAD9FADA5970E94C6349B012F
:10534000AC01C301B2010E94273387FF0CC00E9449
:10535000E50B82E090E00E94EA0B6AE070E080E0FA
:1053600090E00E942A0B80911104853009F446C117
:105370000630110509F042C120916E0330916F0390
:105380004091700350917103A5962CAF3DAF4EAF85
:105390005FAFA59740905203509053036090540321
:1053A0007090550325E137E64FE55EE3A5966CADB9
:1053B0007DAD8EAD9FADA5970E94C634A30192012D
:1053C0000E942733181604F123EB3FE04FE55EE31C
:1053D000A5966CAD7DAD8EAD9FADA5970E94C634F0
:1053E0009B01AC01C301B2010E94273387FF0CC0AF
:1053F0000E94E50B83E090E00E94EA0B6AE070E017
:1054000080E090E00E942A0BD4014D905D906D9059
:105410007C9020915203309153034091540350915A
:105420005503A5962CAF3DAF4EAF5FAFA597C30117
:10543000B2010E94273318160CF4E9C00093000152
:10544000809164048111E3C02EE034E74AED5AE311
:10545000C301B2010E94C7349B01AC01A5966CAD9B
:105460007DAD8EAD9FADA5970E94273387FFCFC03E
:1054700080911104863029F434E0031302C0F092C5
:105480008C0480918C0481110CC00E94E50B84E097
:1054900090E00E94EA0B6AE070E080E090E00E94F9
:1054A0002A0BF092640444E650E0509302014093CA
:1054B0000101ADC010925C0633CE309358062093A4
:1054C0005706909363068093620686CE01301105DD
:1054D00009F04AC020915A0330915B0340915C036C
:1054E00050915D03A5962CAF3DAF4EAF5FAFA59732
:1054F00040905203509053036090540370905503B2
:1055000021E338E04CEA5EE3A5966CAD7DAD8EAD4F
:105510009FADA5970E94C634A30192010E94273334
:10552000181604F120E83CED4BEA5EE3A5966CAD5D
:105530007DAD8EAD9FADA5970E94C6349B01AC0199
:10554000C301B2010E94273387FF0CC00E94E50B04
:1055500081E090E00E94EA0B6AE070E080E090E079
:105560000E942A0B01E010E034E0830E911C61CE12
:105570000530110509F0AACE20916A0330916B0322
:1055800040916C0350916D03A5962CAF3DAF4EAF8B
:105590005FAFA5974090520350905303609054031F
:1055A000709055032DEC3CEC4CE85EE3A5966CAD99
:1055B0007DAD8EAD9FADA5970E94C634A30192012B
:1055C0000E94273318160CF481CE2CE131EA4CE806
:1055D0005EE3A5966CAD7DAD8EAD9FADA5970E94A7
:1055E000C6349B01AC01C301B2010E94273387FF7F
:1055F0006DCE0E94E50B82E090E060CE01151105B2
:1056000009F468CFC8010297029708F0FDCE0F5F3A
:105610001F4F0830110509F059CF109291043092B4
:105620005A062092590620915506309156068091CF
:10563000530690915406289FA001299F500D389F32
:10564000500D11246FEF70E080915706909158062D
:105650000E940F3A0E945C0B2091760330917703F1
:10566000DB01A21BB30B9D01293E334030F0709348
:105670007703609376030E94171A8091010190913D
:105680000201019709F087C00E945C0B20917A0308
:1056900030917B03FB01E21BF30BF39778F0209131
:1056A0007803309179033111DAC2213138F47093E3
:1056B0007B0360937A032F5F20937803E091780354
:1056C00020917A0330917B03AB01421B530B413194
:1056D000574208F4D0C2E13109F0CDC2F09279030B
:1056E0006E2E712C430121E1821A910880914E06A1
:1056F0001F928F9341E252E05F934F93A1969FAD2B
:10570000A1979F93A096AFADA097AF930E94263A22
:1057100080914F061F928F9301E412E01F930F9325
:10572000BF92AF920E94263A809150061F928F93AB
:105730001F930F93DF92CF920E94263A8BE097E05F
:1057400090935A0680935906AE01475A5F4FB401B1
:1057500090E080E00E941F1230925A062092590673
:10576000A501B40185E190E00E941F128EE69AE047
:1057700090935A0680935906B30169507109A601A6
:1057800086E190E00E941F12F09291040FB6F89407
:10579000DEBF0FBECDBF8091010190910201029743
:1057A00009F042C00E945C0B20917E0330917F0380
:1057B000AB01421B530B4333510578F020917C031E
:1057C00030917D0331116BC2203138F470937F0327
:1057D00060937E032F5F20937C0300917C032091D4
:1057E0007E0330917F03AB01421B530B493B5B406F
:1057F00008F461C2003109F05EC2F0927D0310E04E
:1058000040EA57E070E060E0C80140970E94CF088E
:10581000F092910442EC57E070E060E080E290E0AA
:10582000801B910B0E94CF08809101019091020191
:10583000039709F040C00E945C0B209182033091D5
:105840008303DB01A21BB30BD39778F02091800375
:1058500030918103311143C2203138F470938303B6
:10586000609382032F5F20938003E0918003209157
:10587000820330918303AB01421B530B493B5B40D6
:1058800008F439C2E03109F036C2F092810300E138
:1058900010E00E1B110944EE57E0B80190E080E0E3
:1058A0000E94CF08F092910446E058E0B80180E1F0
:1058B00090E00E94CF0880917C048150990B2AE0EF
:1058C000289FB001299F700D1124685D774F2AE051
:1058D00030E050E040E0C5010E949331860127E3AB
:1058E000822E912CC4010E944E34F80181938F01C5
:1058F000FFEF8F1A9F0A22E88216910499F7DF9230
:10590000CF92BF92AF928DE891E09F938F9344E83E
:1059100053E05F934F930E94263A24E030E050E03A
:1059200040E06EE170E084E893E00E94D61580913B
:1059300013048150990B2BE0289FB001299F700D13
:1059400011246C54774F2BE030E050E040E0C6016A
:105950000E9493317090140460901504809012049A
:1059600000914B0610E00053184F60914C066150B7
:10597000770B660F771F660F771F6F5A774F24E0FC
:1059800030E050E040E089ED93E00E949331909048
:105990004D06809111048150990B27E0289FB0019A
:1059A000299F700D11246E57774F27E030E050E0AB
:1059B00040E08DED93E00E9493316F927F92DF92F1
:1059C000CF921F928F921F930F9389ED93E09F9335
:1059D0008F931F929F928DED93E09F938F9384E915
:1059E00091E09F938F93A4EEB3E0BF93AF930E9497
:1059F000263A25E030E042E050E068E270E084EED4
:105A000093E00E94D6150091900410E080918F04DD
:105A10008150990B2AE1289FB001299F700D112414
:105A20006454764F2AE130E050E040E0C6010E9425
:105A30009331015011098DE0809FB001819F700D5D
:105A40001124675C764F2DE030E050E040E0C50166
:105A50000E949331BF92AF92DF92CF9287E292E0A1
:105A60009F938F9326E134E03F932F930E94263A31
:105A70000FB6F894DEBF0FBECDBF26E030E050E099
:105A800040E06EE170E086E194E00E94D6158091DE
:105A9000010190910201079721F487E090E00E94B4
:105AA000CD1682E890E00E94F91328E030E041E052
:105AB00050E06EE170E08AE095E00E94D61580919A
:105AC000010190910201439709F053C00E945C0BC1
:105AD00020914A0430914B04DB01A21BB30BA53685
